{
	"Chapter_1/tugas_1.sol": {
		"Mahasiswa": {
			"abi": [
				{
					"inputs": [
						{
							"internalType": "uint256",
							"name": "",
							"type": "uint256"
						}
					],
					"name": "List",
					"outputs": [
						{
							"internalType": "uint256",
							"name": "nim",
							"type": "uint256"
						},
						{
							"internalType": "string",
							"name": "name",
							"type": "string"
						},
						{
							"internalType": "string",
							"name": "jurusan",
							"type": "string"
						}
					],
					"stateMutability": "view",
					"type": "function"
				},
				{
					"inputs": [
						{
							"internalType": "string",
							"name": "_name",
							"type": "string"
						},
						{
							"internalType": "uint256",
							"name": "_nim",
							"type": "uint256"
						},
						{
							"internalType": "string",
							"name": "_jurusan",
							"type": "string"
						}
					],
					"name": "add",
					"outputs": [],
					"stateMutability": "nonpayable",
					"type": "function"
				},
				{
					"inputs": [
						{
							"internalType": "string",
							"name": "",
							"type": "string"
						}
					],
					"name": "nameNim",
					"outputs": [
						{
							"internalType": "uint256",
							"name": "",
							"type": "uint256"
						}
					],
					"stateMutability": "view",
					"type": "function"
				}
			],
			"devdoc": {
				"kind": "dev",
				"methods": {},
				"version": 1
			},
			"evm": {
				"assembly": "    /* \"Chapter_1/tugas_1.sol\":58:453  contract Mahasiswa {... */\n  mstore(0x40, 0x80)\n  callvalue\n  dup1\n  iszero\n  tag_1\n  jumpi\n  0x00\n  dup1\n  revert\ntag_1:\n  pop\n  dataSize(sub_0)\n  dup1\n  dataOffset(sub_0)\n  0x00\n  codecopy\n  0x00\n  return\nstop\n\nsub_0: assembly {\n        /* \"Chapter_1/tugas_1.sol\":58:453  contract Mahasiswa {... */\n      mstore(0x40, 0x80)\n      callvalue\n      dup1\n      iszero\n      tag_1\n      jumpi\n      0x00\n      dup1\n      revert\n    tag_1:\n      pop\n      jumpi(tag_2, lt(calldatasize, 0x04))\n      shr(0xe0, calldataload(0x00))\n      dup1\n      0x4f15e547\n      eq\n      tag_3\n      jumpi\n      dup1\n      0xabd08bc9\n      eq\n      tag_4\n      jumpi\n      dup1\n      0xdd11eaf2\n      eq\n      tag_5\n      jumpi\n    tag_2:\n      0x00\n      dup1\n      revert\n        /* \"Chapter_1/tugas_1.sol\":271:450  function add(string memory _name, uint256 _nim, string memory _jurusan) public {... */\n    tag_3:\n      tag_6\n      0x04\n      dup1\n      calldatasize\n      sub\n      dup2\n      add\n      swap1\n      tag_7\n      swap2\n      swap1\n      tag_8\n      jump\t// in\n    tag_7:\n      tag_9\n      jump\t// in\n    tag_6:\n      stop\n        /* \"Chapter_1/tugas_1.sol\":223:264  mapping(string => uint256) public nameNim */\n    tag_4:\n      tag_10\n      0x04\n      dup1\n      calldatasize\n      sub\n      dup2\n      add\n      swap1\n      tag_11\n      swap2\n      swap1\n      tag_12\n      jump\t// in\n    tag_11:\n      tag_13\n      jump\t// in\n    tag_10:\n      mload(0x40)\n      tag_14\n      swap2\n      swap1\n      tag_15\n      jump\t// in\n    tag_14:\n      mload(0x40)\n      dup1\n      swap2\n      sub\n      swap1\n      return\n        /* \"Chapter_1/tugas_1.sol\":196:216  Person[] public List */\n    tag_5:\n      tag_16\n      0x04\n      dup1\n      calldatasize\n      sub\n      dup2\n      add\n      swap1\n      tag_17\n      swap2\n      swap1\n      tag_18\n      jump\t// in\n    tag_17:\n      tag_19\n      jump\t// in\n    tag_16:\n      mload(0x40)\n      tag_20\n      swap4\n      swap3\n      swap2\n      swap1\n      tag_21\n      jump\t// in\n    tag_20:\n      mload(0x40)\n      dup1\n      swap2\n      sub\n      swap1\n      return\n        /* \"Chapter_1/tugas_1.sol\":271:450  function add(string memory _name, uint256 _nim, string memory _jurusan) public {... */\n    tag_9:\n        /* \"Chapter_1/tugas_1.sol\":364:368  List */\n      0x00\n        /* \"Chapter_1/tugas_1.sol\":374:403  Person(_nim, _name, _jurusan) */\n      mload(0x40)\n      dup1\n      0x60\n      add\n      0x40\n      mstore\n      dup1\n        /* \"Chapter_1/tugas_1.sol\":381:385  _nim */\n      dup5\n        /* \"Chapter_1/tugas_1.sol\":374:403  Person(_nim, _name, _jurusan) */\n      dup2\n      mstore\n      0x20\n      add\n        /* \"Chapter_1/tugas_1.sol\":387:392  _name */\n      dup6\n        /* \"Chapter_1/tugas_1.sol\":374:403  Person(_nim, _name, _jurusan) */\n      dup2\n      mstore\n      0x20\n      add\n        /* \"Chapter_1/tugas_1.sol\":394:402  _jurusan */\n      dup4\n        /* \"Chapter_1/tugas_1.sol\":374:403  Person(_nim, _name, _jurusan) */\n      dup2\n      mstore\n      pop\n        /* \"Chapter_1/tugas_1.sol\":364:404  List.push(Person(_nim, _name, _jurusan)) */\n      swap1\n      dup1\n      0x01\n      dup2\n      sload\n      add\n      dup1\n      dup3\n      sstore\n      dup1\n      swap2\n      pop\n      pop\n      0x01\n      swap1\n      sub\n      swap1\n      0x00\n      mstore\n      keccak256(0x00, 0x20)\n      swap1\n      0x03\n      mul\n      add\n      0x00\n      swap1\n      swap2\n      swap1\n      swap2\n      swap1\n      swap2\n      pop\n      0x00\n      dup3\n      add\n      mload\n      dup2\n      0x00\n      add\n      sstore\n      0x20\n      dup3\n      add\n      mload\n      dup2\n      0x01\n      add\n      swap1\n      dup2\n      tag_24\n      swap2\n      swap1\n      tag_25\n      jump\t// in\n    tag_24:\n      pop\n      0x40\n      dup3\n      add\n      mload\n      dup2\n      0x02\n      add\n      swap1\n      dup2\n      tag_26\n      swap2\n      swap1\n      tag_25\n      jump\t// in\n    tag_26:\n      pop\n      pop\n      pop\n        /* \"Chapter_1/tugas_1.sol\":435:439  _nim */\n      dup2\n        /* \"Chapter_1/tugas_1.sol\":418:425  nameNim */\n      0x01\n        /* \"Chapter_1/tugas_1.sol\":426:431  _name */\n      dup5\n        /* \"Chapter_1/tugas_1.sol\":418:432  nameNim[_name] */\n      mload(0x40)\n      tag_27\n      swap2\n      swap1\n      tag_28\n      jump\t// in\n    tag_27:\n      swap1\n      dup2\n      mstore\n      0x20\n      add\n      mload(0x40)\n      dup1\n      swap2\n      sub\n      swap1\n      keccak256\n        /* \"Chapter_1/tugas_1.sol\":418:439  nameNim[_name] = _nim */\n      dup2\n      swap1\n      sstore\n      pop\n        /* \"Chapter_1/tugas_1.sol\":271:450  function add(string memory _name, uint256 _nim, string memory _jurusan) public {... */\n      pop\n      pop\n      pop\n      jump\t// out\n        /* \"Chapter_1/tugas_1.sol\":223:264  mapping(string => uint256) public nameNim */\n    tag_13:\n      0x01\n      dup2\n      dup1\n      mload\n      0x20\n      dup2\n      add\n      dup3\n      add\n      dup1\n      mload\n      dup5\n      dup3\n      mstore\n      0x20\n      dup4\n      add\n      0x20\n      dup6\n      add\n      keccak256\n      dup2\n      dup4\n      mstore\n      dup1\n      swap6\n      pop\n      pop\n      pop\n      pop\n      pop\n      pop\n      0x00\n      swap2\n      pop\n      swap1\n      pop\n      sload\n      dup2\n      jump\t// out\n        /* \"Chapter_1/tugas_1.sol\":196:216  Person[] public List */\n    tag_19:\n      0x00\n      dup2\n      dup2\n      sload\n      dup2\n      lt\n      tag_29\n      jumpi\n      0x00\n      dup1\n      revert\n    tag_29:\n      swap1\n      0x00\n      mstore\n      keccak256(0x00, 0x20)\n      swap1\n      0x03\n      mul\n      add\n      0x00\n      swap2\n      pop\n      swap1\n      pop\n      dup1\n      0x00\n      add\n      sload\n      swap1\n      dup1\n      0x01\n      add\n      dup1\n      sload\n      tag_31\n      swap1\n      tag_32\n      jump\t// in\n    tag_31:\n      dup1\n      0x1f\n      add\n      0x20\n      dup1\n      swap2\n      div\n      mul\n      0x20\n      add\n      mload(0x40)\n      swap1\n      dup2\n      add\n      0x40\n      mstore\n      dup1\n      swap3\n      swap2\n      swap1\n      dup2\n      dup2\n      mstore\n      0x20\n      add\n      dup3\n      dup1\n      sload\n      tag_33\n      swap1\n      tag_32\n      jump\t// in\n    tag_33:\n      dup1\n      iszero\n      tag_34\n      jumpi\n      dup1\n      0x1f\n      lt\n      tag_35\n      jumpi\n      0x0100\n      dup1\n      dup4\n      sload\n      div\n      mul\n      dup4\n      mstore\n      swap2\n      0x20\n      add\n      swap2\n      jump(tag_34)\n    tag_35:\n      dup3\n      add\n      swap2\n      swap1\n      0x00\n      mstore\n      keccak256(0x00, 0x20)\n      swap1\n    tag_36:\n      dup2\n      sload\n      dup2\n      mstore\n      swap1\n      0x01\n      add\n      swap1\n      0x20\n      add\n      dup1\n      dup4\n      gt\n      tag_36\n      jumpi\n      dup3\n      swap1\n      sub\n      0x1f\n      and\n      dup3\n      add\n      swap2\n    tag_34:\n      pop\n      pop\n      pop\n      pop\n      pop\n      swap1\n      dup1\n      0x02\n      add\n      dup1\n      sload\n      tag_37\n      swap1\n      tag_32\n      jump\t// in\n    tag_37:\n      dup1\n      0x1f\n      add\n      0x20\n      dup1\n      swap2\n      div\n      mul\n      0x20\n      add\n      mload(0x40)\n      swap1\n      dup2\n      add\n      0x40\n      mstore\n      dup1\n      swap3\n      swap2\n      swap1\n      dup2\n      dup2\n      mstore\n      0x20\n      add\n      dup3\n      dup1\n      sload\n      tag_38\n      swap1\n      tag_32\n      jump\t// in\n    tag_38:\n      dup1\n      iszero\n      tag_39\n      jumpi\n      dup1\n      0x1f\n      lt\n      tag_40\n      jumpi\n      0x0100\n      dup1\n      dup4\n      sload\n      div\n      mul\n      dup4\n      mstore\n      swap2\n      0x20\n      add\n      swap2\n      jump(tag_39)\n    tag_40:\n      dup3\n      add\n      swap2\n      swap1\n      0x00\n      mstore\n      keccak256(0x00, 0x20)\n      swap1\n    tag_41:\n      dup2\n      sload\n      dup2\n      mstore\n      swap1\n      0x01\n      add\n      swap1\n      0x20\n      add\n      dup1\n      dup4\n      gt\n      tag_41\n      jumpi\n      dup3\n      swap1\n      sub\n      0x1f\n      and\n      dup3\n      add\n      swap2\n    tag_39:\n      pop\n      pop\n      pop\n      pop\n      pop\n      swap1\n      pop\n      dup4\n      jump\t// out\n        /* \"#utility.yul\":7:82   */\n    tag_42:\n        /* \"#utility.yul\":40:46   */\n      0x00\n        /* \"#utility.yul\":73:75   */\n      0x40\n        /* \"#utility.yul\":67:76   */\n      mload\n        /* \"#utility.yul\":57:76   */\n      swap1\n      pop\n        /* \"#utility.yul\":7:82   */\n      swap1\n      jump\t// out\n        /* \"#utility.yul\":88:205   */\n    tag_43:\n        /* \"#utility.yul\":197:198   */\n      0x00\n        /* \"#utility.yul\":194:195   */\n      dup1\n        /* \"#utility.yul\":187:199   */\n      revert\n        /* \"#utility.yul\":211:328   */\n    tag_44:\n        /* \"#utility.yul\":320:321   */\n      0x00\n        /* \"#utility.yul\":317:318   */\n      dup1\n        /* \"#utility.yul\":310:322   */\n      revert\n        /* \"#utility.yul\":334:451   */\n    tag_45:\n        /* \"#utility.yul\":443:444   */\n      0x00\n        /* \"#utility.yul\":440:441   */\n      dup1\n        /* \"#utility.yul\":433:445   */\n      revert\n        /* \"#utility.yul\":457:574   */\n    tag_46:\n        /* \"#utility.yul\":566:567   */\n      0x00\n        /* \"#utility.yul\":563:564   */\n      dup1\n        /* \"#utility.yul\":556:568   */\n      revert\n        /* \"#utility.yul\":580:682   */\n    tag_47:\n        /* \"#utility.yul\":621:627   */\n      0x00\n        /* \"#utility.yul\":672:674   */\n      0x1f\n        /* \"#utility.yul\":668:675   */\n      not\n        /* \"#utility.yul\":663:665   */\n      0x1f\n        /* \"#utility.yul\":656:661   */\n      dup4\n        /* \"#utility.yul\":652:666   */\n      add\n        /* \"#utility.yul\":648:676   */\n      and\n        /* \"#utility.yul\":638:676   */\n      swap1\n      pop\n        /* \"#utility.yul\":580:682   */\n      swap2\n      swap1\n      pop\n      jump\t// out\n        /* \"#utility.yul\":688:868   */\n    tag_48:\n        /* \"#utility.yul\":736:813   */\n      0x4e487b7100000000000000000000000000000000000000000000000000000000\n        /* \"#utility.yul\":733:734   */\n      0x00\n        /* \"#utility.yul\":726:814   */\n      mstore\n        /* \"#utility.yul\":833:837   */\n      0x41\n        /* \"#utility.yul\":830:831   */\n      0x04\n        /* \"#utility.yul\":823:838   */\n      mstore\n        /* \"#utility.yul\":857:861   */\n      0x24\n        /* \"#utility.yul\":854:855   */\n      0x00\n        /* \"#utility.yul\":847:862   */\n      revert\n        /* \"#utility.yul\":874:1155   */\n    tag_49:\n        /* \"#utility.yul\":957:984   */\n      tag_90\n        /* \"#utility.yul\":979:983   */\n      dup3\n        /* \"#utility.yul\":957:984   */\n      tag_47\n      jump\t// in\n    tag_90:\n        /* \"#utility.yul\":949:955   */\n      dup2\n        /* \"#utility.yul\":945:985   */\n      add\n        /* \"#utility.yul\":1087:1093   */\n      dup2\n        /* \"#utility.yul\":1075:1085   */\n      dup2\n        /* \"#utility.yul\":1072:1094   */\n      lt\n        /* \"#utility.yul\":1051:1069   */\n      0xffffffffffffffff\n        /* \"#utility.yul\":1039:1049   */\n      dup3\n        /* \"#utility.yul\":1036:1070   */\n      gt\n        /* \"#utility.yul\":1033:1095   */\n      or\n        /* \"#utility.yul\":1030:1118   */\n      iszero\n      tag_91\n      jumpi\n        /* \"#utility.yul\":1098:1116   */\n      tag_92\n      tag_48\n      jump\t// in\n    tag_92:\n        /* \"#utility.yul\":1030:1118   */\n    tag_91:\n        /* \"#utility.yul\":1138:1148   */\n      dup1\n        /* \"#utility.yul\":1134:1136   */\n      0x40\n        /* \"#utility.yul\":1127:1149   */\n      mstore\n        /* \"#utility.yul\":917:1155   */\n      pop\n        /* \"#utility.yul\":874:1155   */\n      pop\n      pop\n      jump\t// out\n        /* \"#utility.yul\":1161:1290   */\n    tag_50:\n        /* \"#utility.yul\":1195:1201   */\n      0x00\n        /* \"#utility.yul\":1222:1242   */\n      tag_94\n      tag_42\n      jump\t// in\n    tag_94:\n        /* \"#utility.yul\":1212:1242   */\n      swap1\n      pop\n        /* \"#utility.yul\":1251:1284   */\n      tag_95\n        /* \"#utility.yul\":1279:1283   */\n      dup3\n        /* \"#utility.yul\":1271:1277   */\n      dup3\n        /* \"#utility.yul\":1251:1284   */\n      tag_49\n      jump\t// in\n    tag_95:\n        /* \"#utility.yul\":1161:1290   */\n      swap2\n      swap1\n      pop\n      jump\t// out\n        /* \"#utility.yul\":1296:1604   */\n    tag_51:\n        /* \"#utility.yul\":1358:1362   */\n      0x00\n        /* \"#utility.yul\":1448:1466   */\n      0xffffffffffffffff\n        /* \"#utility.yul\":1440:1446   */\n      dup3\n        /* \"#utility.yul\":1437:1467   */\n      gt\n        /* \"#utility.yul\":1434:1490   */\n      iszero\n      tag_97\n      jumpi\n        /* \"#utility.yul\":1470:1488   */\n      tag_98\n      tag_48\n      jump\t// in\n    tag_98:\n        /* \"#utility.yul\":1434:1490   */\n    tag_97:\n        /* \"#utility.yul\":1508:1537   */\n      tag_99\n        /* \"#utility.yul\":1530:1536   */\n      dup3\n        /* \"#utility.yul\":1508:1537   */\n      tag_47\n      jump\t// in\n    tag_99:\n        /* \"#utility.yul\":1500:1537   */\n      swap1\n      pop\n        /* \"#utility.yul\":1592:1596   */\n      0x20\n        /* \"#utility.yul\":1586:1590   */\n      dup2\n        /* \"#utility.yul\":1582:1597   */\n      add\n        /* \"#utility.yul\":1574:1597   */\n      swap1\n      pop\n        /* \"#utility.yul\":1296:1604   */\n      swap2\n      swap1\n      pop\n      jump\t// out\n        /* \"#utility.yul\":1610:1758   */\n    tag_52:\n        /* \"#utility.yul\":1708:1714   */\n      dup3\n        /* \"#utility.yul\":1703:1706   */\n      dup2\n        /* \"#utility.yul\":1698:1701   */\n      dup4\n        /* \"#utility.yul\":1685:1715   */\n      calldatacopy\n        /* \"#utility.yul\":1749:1750   */\n      0x00\n        /* \"#utility.yul\":1740:1746   */\n      dup4\n        /* \"#utility.yul\":1735:1738   */\n      dup4\n        /* \"#utility.yul\":1731:1747   */\n      add\n        /* \"#utility.yul\":1724:1751   */\n      mstore\n        /* \"#utility.yul\":1610:1758   */\n      pop\n      pop\n      pop\n      jump\t// out\n        /* \"#utility.yul\":1764:2189   */\n    tag_53:\n        /* \"#utility.yul\":1842:1847   */\n      0x00\n        /* \"#utility.yul\":1867:1933   */\n      tag_102\n        /* \"#utility.yul\":1883:1932   */\n      tag_103\n        /* \"#utility.yul\":1925:1931   */\n      dup5\n        /* \"#utility.yul\":1883:1932   */\n      tag_51\n      jump\t// in\n    tag_103:\n        /* \"#utility.yul\":1867:1933   */\n      tag_50\n      jump\t// in\n    tag_102:\n        /* \"#utility.yul\":1858:1933   */\n      swap1\n      pop\n        /* \"#utility.yul\":1956:1962   */\n      dup3\n        /* \"#utility.yul\":1949:1954   */\n      dup2\n        /* \"#utility.yul\":1942:1963   */\n      mstore\n        /* \"#utility.yul\":1994:1998   */\n      0x20\n        /* \"#utility.yul\":1987:1992   */\n      dup2\n        /* \"#utility.yul\":1983:1999   */\n      add\n        /* \"#utility.yul\":2032:2035   */\n      dup5\n        /* \"#utility.yul\":2023:2029   */\n      dup5\n        /* \"#utility.yul\":2018:2021   */\n      dup5\n        /* \"#utility.yul\":2014:2030   */\n      add\n        /* \"#utility.yul\":2011:2036   */\n      gt\n        /* \"#utility.yul\":2008:2120   */\n      iszero\n      tag_104\n      jumpi\n        /* \"#utility.yul\":2039:2118   */\n      tag_105\n      tag_46\n      jump\t// in\n    tag_105:\n        /* \"#utility.yul\":2008:2120   */\n    tag_104:\n        /* \"#utility.yul\":2129:2183   */\n      tag_106\n        /* \"#utility.yul\":2176:2182   */\n      dup5\n        /* \"#utility.yul\":2171:2174   */\n      dup3\n        /* \"#utility.yul\":2166:2169   */\n      dup6\n        /* \"#utility.yul\":2129:2183   */\n      tag_52\n      jump\t// in\n    tag_106:\n        /* \"#utility.yul\":1848:2189   */\n      pop\n        /* \"#utility.yul\":1764:2189   */\n      swap4\n      swap3\n      pop\n      pop\n      pop\n      jump\t// out\n        /* \"#utility.yul\":2209:2549   */\n    tag_54:\n        /* \"#utility.yul\":2265:2270   */\n      0x00\n        /* \"#utility.yul\":2314:2317   */\n      dup3\n        /* \"#utility.yul\":2307:2311   */\n      0x1f\n        /* \"#utility.yul\":2299:2305   */\n      dup4\n        /* \"#utility.yul\":2295:2312   */\n      add\n        /* \"#utility.yul\":2291:2318   */\n      slt\n        /* \"#utility.yul\":2281:2403   */\n      tag_108\n      jumpi\n        /* \"#utility.yul\":2322:2401   */\n      tag_109\n      tag_45\n      jump\t// in\n    tag_109:\n        /* \"#utility.yul\":2281:2403   */\n    tag_108:\n        /* \"#utility.yul\":2439:2445   */\n      dup2\n        /* \"#utility.yul\":2426:2446   */\n      calldataload\n        /* \"#utility.yul\":2464:2543   */\n      tag_110\n        /* \"#utility.yul\":2539:2542   */\n      dup5\n        /* \"#utility.yul\":2531:2537   */\n      dup3\n        /* \"#utility.yul\":2524:2528   */\n      0x20\n        /* \"#utility.yul\":2516:2522   */\n      dup7\n        /* \"#utility.yul\":2512:2529   */\n      add\n        /* \"#utility.yul\":2464:2543   */\n      tag_53\n      jump\t// in\n    tag_110:\n        /* \"#utility.yul\":2455:2543   */\n      swap2\n      pop\n        /* \"#utility.yul\":2271:2549   */\n      pop\n        /* \"#utility.yul\":2209:2549   */\n      swap3\n      swap2\n      pop\n      pop\n      jump\t// out\n        /* \"#utility.yul\":2555:2632   */\n    tag_55:\n        /* \"#utility.yul\":2592:2599   */\n      0x00\n        /* \"#utility.yul\":2621:2626   */\n      dup2\n        /* \"#utility.yul\":2610:2626   */\n      swap1\n      pop\n        /* \"#utility.yul\":2555:2632   */\n      swap2\n      swap1\n      pop\n      jump\t// out\n        /* \"#utility.yul\":2638:2760   */\n    tag_56:\n        /* \"#utility.yul\":2711:2735   */\n      tag_113\n        /* \"#utility.yul\":2729:2734   */\n      dup2\n        /* \"#utility.yul\":2711:2735   */\n      tag_55\n      jump\t// in\n    tag_113:\n        /* \"#utility.yul\":2704:2709   */\n      dup2\n        /* \"#utility.yul\":2701:2736   */\n      eq\n        /* \"#utility.yul\":2691:2754   */\n      tag_114\n      jumpi\n        /* \"#utility.yul\":2750:2751   */\n      0x00\n        /* \"#utility.yul\":2747:2748   */\n      dup1\n        /* \"#utility.yul\":2740:2752   */\n      revert\n        /* \"#utility.yul\":2691:2754   */\n    tag_114:\n        /* \"#utility.yul\":2638:2760   */\n      pop\n      jump\t// out\n        /* \"#utility.yul\":2766:2905   */\n    tag_57:\n        /* \"#utility.yul\":2812:2817   */\n      0x00\n        /* \"#utility.yul\":2850:2856   */\n      dup2\n        /* \"#utility.yul\":2837:2857   */\n      calldataload\n        /* \"#utility.yul\":2828:2857   */\n      swap1\n      pop\n        /* \"#utility.yul\":2866:2899   */\n      tag_116\n        /* \"#utility.yul\":2893:2898   */\n      dup2\n        /* \"#utility.yul\":2866:2899   */\n      tag_56\n      jump\t// in\n    tag_116:\n        /* \"#utility.yul\":2766:2905   */\n      swap3\n      swap2\n      pop\n      pop\n      jump\t// out\n        /* \"#utility.yul\":2911:3890   */\n    tag_8:\n        /* \"#utility.yul\":3008:3014   */\n      0x00\n        /* \"#utility.yul\":3016:3022   */\n      dup1\n        /* \"#utility.yul\":3024:3030   */\n      0x00\n        /* \"#utility.yul\":3073:3075   */\n      0x60\n        /* \"#utility.yul\":3061:3070   */\n      dup5\n        /* \"#utility.yul\":3052:3059   */\n      dup7\n        /* \"#utility.yul\":3048:3071   */\n      sub\n        /* \"#utility.yul\":3044:3076   */\n      slt\n        /* \"#utility.yul\":3041:3160   */\n      iszero\n      tag_118\n      jumpi\n        /* \"#utility.yul\":3079:3158   */\n      tag_119\n      tag_43\n      jump\t// in\n    tag_119:\n        /* \"#utility.yul\":3041:3160   */\n    tag_118:\n        /* \"#utility.yul\":3227:3228   */\n      0x00\n        /* \"#utility.yul\":3216:3225   */\n      dup5\n        /* \"#utility.yul\":3212:3229   */\n      add\n        /* \"#utility.yul\":3199:3230   */\n      calldataload\n        /* \"#utility.yul\":3257:3275   */\n      0xffffffffffffffff\n        /* \"#utility.yul\":3249:3255   */\n      dup2\n        /* \"#utility.yul\":3246:3276   */\n      gt\n        /* \"#utility.yul\":3243:3360   */\n      iszero\n      tag_120\n      jumpi\n        /* \"#utility.yul\":3279:3358   */\n      tag_121\n      tag_44\n      jump\t// in\n    tag_121:\n        /* \"#utility.yul\":3243:3360   */\n    tag_120:\n        /* \"#utility.yul\":3384:3447   */\n      tag_122\n        /* \"#utility.yul\":3439:3446   */\n      dup7\n        /* \"#utility.yul\":3430:3436   */\n      dup3\n        /* \"#utility.yul\":3419:3428   */\n      dup8\n        /* \"#utility.yul\":3415:3437   */\n      add\n        /* \"#utility.yul\":3384:3447   */\n      tag_54\n      jump\t// in\n    tag_122:\n        /* \"#utility.yul\":3374:3447   */\n      swap4\n      pop\n        /* \"#utility.yul\":3170:3457   */\n      pop\n        /* \"#utility.yul\":3496:3498   */\n      0x20\n        /* \"#utility.yul\":3522:3575   */\n      tag_123\n        /* \"#utility.yul\":3567:3574   */\n      dup7\n        /* \"#utility.yul\":3558:3564   */\n      dup3\n        /* \"#utility.yul\":3547:3556   */\n      dup8\n        /* \"#utility.yul\":3543:3565   */\n      add\n        /* \"#utility.yul\":3522:3575   */\n      tag_57\n      jump\t// in\n    tag_123:\n        /* \"#utility.yul\":3512:3575   */\n      swap3\n      pop\n        /* \"#utility.yul\":3467:3585   */\n      pop\n        /* \"#utility.yul\":3652:3654   */\n      0x40\n        /* \"#utility.yul\":3641:3650   */\n      dup5\n        /* \"#utility.yul\":3637:3655   */\n      add\n        /* \"#utility.yul\":3624:3656   */\n      calldataload\n        /* \"#utility.yul\":3683:3701   */\n      0xffffffffffffffff\n        /* \"#utility.yul\":3675:3681   */\n      dup2\n        /* \"#utility.yul\":3672:3702   */\n      gt\n        /* \"#utility.yul\":3669:3786   */\n      iszero\n      tag_124\n      jumpi\n        /* \"#utility.yul\":3705:3784   */\n      tag_125\n      tag_44\n      jump\t// in\n    tag_125:\n        /* \"#utility.yul\":3669:3786   */\n    tag_124:\n        /* \"#utility.yul\":3810:3873   */\n      tag_126\n        /* \"#utility.yul\":3865:3872   */\n      dup7\n        /* \"#utility.yul\":3856:3862   */\n      dup3\n        /* \"#utility.yul\":3845:3854   */\n      dup8\n        /* \"#utility.yul\":3841:3863   */\n      add\n        /* \"#utility.yul\":3810:3873   */\n      tag_54\n      jump\t// in\n    tag_126:\n        /* \"#utility.yul\":3800:3873   */\n      swap2\n      pop\n        /* \"#utility.yul\":3595:3883   */\n      pop\n        /* \"#utility.yul\":2911:3890   */\n      swap3\n      pop\n      swap3\n      pop\n      swap3\n      jump\t// out\n        /* \"#utility.yul\":3896:4405   */\n    tag_12:\n        /* \"#utility.yul\":3965:3971   */\n      0x00\n        /* \"#utility.yul\":4014:4016   */\n      0x20\n        /* \"#utility.yul\":4002:4011   */\n      dup3\n        /* \"#utility.yul\":3993:4000   */\n      dup5\n        /* \"#utility.yul\":3989:4012   */\n      sub\n        /* \"#utility.yul\":3985:4017   */\n      slt\n        /* \"#utility.yul\":3982:4101   */\n      iszero\n      tag_128\n      jumpi\n        /* \"#utility.yul\":4020:4099   */\n      tag_129\n      tag_43\n      jump\t// in\n    tag_129:\n        /* \"#utility.yul\":3982:4101   */\n    tag_128:\n        /* \"#utility.yul\":4168:4169   */\n      0x00\n        /* \"#utility.yul\":4157:4166   */\n      dup3\n        /* \"#utility.yul\":4153:4170   */\n      add\n        /* \"#utility.yul\":4140:4171   */\n      calldataload\n        /* \"#utility.yul\":4198:4216   */\n      0xffffffffffffffff\n        /* \"#utility.yul\":4190:4196   */\n      dup2\n        /* \"#utility.yul\":4187:4217   */\n      gt\n        /* \"#utility.yul\":4184:4301   */\n      iszero\n      tag_130\n      jumpi\n        /* \"#utility.yul\":4220:4299   */\n      tag_131\n      tag_44\n      jump\t// in\n    tag_131:\n        /* \"#utility.yul\":4184:4301   */\n    tag_130:\n        /* \"#utility.yul\":4325:4388   */\n      tag_132\n        /* \"#utility.yul\":4380:4387   */\n      dup5\n        /* \"#utility.yul\":4371:4377   */\n      dup3\n        /* \"#utility.yul\":4360:4369   */\n      dup6\n        /* \"#utility.yul\":4356:4378   */\n      add\n        /* \"#utility.yul\":4325:4388   */\n      tag_54\n      jump\t// in\n    tag_132:\n        /* \"#utility.yul\":4315:4388   */\n      swap2\n      pop\n        /* \"#utility.yul\":4111:4398   */\n      pop\n        /* \"#utility.yul\":3896:4405   */\n      swap3\n      swap2\n      pop\n      pop\n      jump\t// out\n        /* \"#utility.yul\":4411:4529   */\n    tag_58:\n        /* \"#utility.yul\":4498:4522   */\n      tag_134\n        /* \"#utility.yul\":4516:4521   */\n      dup2\n        /* \"#utility.yul\":4498:4522   */\n      tag_55\n      jump\t// in\n    tag_134:\n        /* \"#utility.yul\":4493:4496   */\n      dup3\n        /* \"#utility.yul\":4486:4523   */\n      mstore\n        /* \"#utility.yul\":4411:4529   */\n      pop\n      pop\n      jump\t// out\n        /* \"#utility.yul\":4535:4757   */\n    tag_15:\n        /* \"#utility.yul\":4628:4632   */\n      0x00\n        /* \"#utility.yul\":4666:4668   */\n      0x20\n        /* \"#utility.yul\":4655:4664   */\n      dup3\n        /* \"#utility.yul\":4651:4669   */\n      add\n        /* \"#utility.yul\":4643:4669   */\n      swap1\n      pop\n        /* \"#utility.yul\":4679:4750   */\n      tag_136\n        /* \"#utility.yul\":4747:4748   */\n      0x00\n        /* \"#utility.yul\":4736:4745   */\n      dup4\n        /* \"#utility.yul\":4732:4749   */\n      add\n        /* \"#utility.yul\":4723:4729   */\n      dup5\n        /* \"#utility.yul\":4679:4750   */\n      tag_58\n      jump\t// in\n    tag_136:\n        /* \"#utility.yul\":4535:4757   */\n      swap3\n      swap2\n      pop\n      pop\n      jump\t// out\n        /* \"#utility.yul\":4763:5092   */\n    tag_18:\n        /* \"#utility.yul\":4822:4828   */\n      0x00\n        /* \"#utility.yul\":4871:4873   */\n      0x20\n        /* \"#utility.yul\":4859:4868   */\n      dup3\n        /* \"#utility.yul\":4850:4857   */\n      dup5\n        /* \"#utility.yul\":4846:4869   */\n      sub\n        /* \"#utility.yul\":4842:4874   */\n      slt\n        /* \"#utility.yul\":4839:4958   */\n      iszero\n      tag_138\n      jumpi\n        /* \"#utility.yul\":4877:4956   */\n      tag_139\n      tag_43\n      jump\t// in\n    tag_139:\n        /* \"#utility.yul\":4839:4958   */\n    tag_138:\n        /* \"#utility.yul\":4997:4998   */\n      0x00\n        /* \"#utility.yul\":5022:5075   */\n      tag_140\n        /* \"#utility.yul\":5067:5074   */\n      dup5\n        /* \"#utility.yul\":5058:5064   */\n      dup3\n        /* \"#utility.yul\":5047:5056   */\n      dup6\n        /* \"#utility.yul\":5043:5065   */\n      add\n        /* \"#utility.yul\":5022:5075   */\n      tag_57\n      jump\t// in\n    tag_140:\n        /* \"#utility.yul\":5012:5075   */\n      swap2\n      pop\n        /* \"#utility.yul\":4968:5085   */\n      pop\n        /* \"#utility.yul\":4763:5092   */\n      swap3\n      swap2\n      pop\n      pop\n      jump\t// out\n        /* \"#utility.yul\":5098:5197   */\n    tag_59:\n        /* \"#utility.yul\":5150:5156   */\n      0x00\n        /* \"#utility.yul\":5184:5189   */\n      dup2\n        /* \"#utility.yul\":5178:5190   */\n      mload\n        /* \"#utility.yul\":5168:5190   */\n      swap1\n      pop\n        /* \"#utility.yul\":5098:5197   */\n      swap2\n      swap1\n      pop\n      jump\t// out\n        /* \"#utility.yul\":5203:5372   */\n    tag_60:\n        /* \"#utility.yul\":5287:5298   */\n      0x00\n        /* \"#utility.yul\":5321:5327   */\n      dup3\n        /* \"#utility.yul\":5316:5319   */\n      dup3\n        /* \"#utility.yul\":5309:5328   */\n      mstore\n        /* \"#utility.yul\":5361:5365   */\n      0x20\n        /* \"#utility.yul\":5356:5359   */\n      dup3\n        /* \"#utility.yul\":5352:5366   */\n      add\n        /* \"#utility.yul\":5337:5366   */\n      swap1\n      pop\n        /* \"#utility.yul\":5203:5372   */\n      swap3\n      swap2\n      pop\n      pop\n      jump\t// out\n        /* \"#utility.yul\":5378:5517   */\n    tag_61:\n        /* \"#utility.yul\":5467:5473   */\n      dup3\n        /* \"#utility.yul\":5462:5465   */\n      dup2\n        /* \"#utility.yul\":5457:5460   */\n      dup4\n        /* \"#utility.yul\":5451:5474   */\n      mcopy\n        /* \"#utility.yul\":5508:5509   */\n      0x00\n        /* \"#utility.yul\":5499:5505   */\n      dup4\n        /* \"#utility.yul\":5494:5497   */\n      dup4\n        /* \"#utility.yul\":5490:5506   */\n      add\n        /* \"#utility.yul\":5483:5510   */\n      mstore\n        /* \"#utility.yul\":5378:5517   */\n      pop\n      pop\n      pop\n      jump\t// out\n        /* \"#utility.yul\":5523:5900   */\n    tag_62:\n        /* \"#utility.yul\":5611:5614   */\n      0x00\n        /* \"#utility.yul\":5639:5678   */\n      tag_145\n        /* \"#utility.yul\":5672:5677   */\n      dup3\n        /* \"#utility.yul\":5639:5678   */\n      tag_59\n      jump\t// in\n    tag_145:\n        /* \"#utility.yul\":5694:5765   */\n      tag_146\n        /* \"#utility.yul\":5758:5764   */\n      dup2\n        /* \"#utility.yul\":5753:5756   */\n      dup6\n        /* \"#utility.yul\":5694:5765   */\n      tag_60\n      jump\t// in\n    tag_146:\n        /* \"#utility.yul\":5687:5765   */\n      swap4\n      pop\n        /* \"#utility.yul\":5774:5839   */\n      tag_147\n        /* \"#utility.yul\":5832:5838   */\n      dup2\n        /* \"#utility.yul\":5827:5830   */\n      dup6\n        /* \"#utility.yul\":5820:5824   */\n      0x20\n        /* \"#utility.yul\":5813:5818   */\n      dup7\n        /* \"#utility.yul\":5809:5825   */\n      add\n        /* \"#utility.yul\":5774:5839   */\n      tag_61\n      jump\t// in\n    tag_147:\n        /* \"#utility.yul\":5864:5893   */\n      tag_148\n        /* \"#utility.yul\":5886:5892   */\n      dup2\n        /* \"#utility.yul\":5864:5893   */\n      tag_47\n      jump\t// in\n    tag_148:\n        /* \"#utility.yul\":5859:5862   */\n      dup5\n        /* \"#utility.yul\":5855:5894   */\n      add\n        /* \"#utility.yul\":5848:5894   */\n      swap2\n      pop\n        /* \"#utility.yul\":5615:5900   */\n      pop\n        /* \"#utility.yul\":5523:5900   */\n      swap3\n      swap2\n      pop\n      pop\n      jump\t// out\n        /* \"#utility.yul\":5906:6530   */\n    tag_21:\n        /* \"#utility.yul\":6095:6099   */\n      0x00\n        /* \"#utility.yul\":6133:6135   */\n      0x60\n        /* \"#utility.yul\":6122:6131   */\n      dup3\n        /* \"#utility.yul\":6118:6136   */\n      add\n        /* \"#utility.yul\":6110:6136   */\n      swap1\n      pop\n        /* \"#utility.yul\":6146:6217   */\n      tag_150\n        /* \"#utility.yul\":6214:6215   */\n      0x00\n        /* \"#utility.yul\":6203:6212   */\n      dup4\n        /* \"#utility.yul\":6199:6216   */\n      add\n        /* \"#utility.yul\":6190:6196   */\n      dup7\n        /* \"#utility.yul\":6146:6217   */\n      tag_58\n      jump\t// in\n    tag_150:\n        /* \"#utility.yul\":6264:6273   */\n      dup2\n        /* \"#utility.yul\":6258:6262   */\n      dup2\n        /* \"#utility.yul\":6254:6274   */\n      sub\n        /* \"#utility.yul\":6249:6251   */\n      0x20\n        /* \"#utility.yul\":6238:6247   */\n      dup4\n        /* \"#utility.yul\":6234:6252   */\n      add\n        /* \"#utility.yul\":6227:6275   */\n      mstore\n        /* \"#utility.yul\":6292:6370   */\n      tag_151\n        /* \"#utility.yul\":6365:6369   */\n      dup2\n        /* \"#utility.yul\":6356:6362   */\n      dup6\n        /* \"#utility.yul\":6292:6370   */\n      tag_62\n      jump\t// in\n    tag_151:\n        /* \"#utility.yul\":6284:6370   */\n      swap1\n      pop\n        /* \"#utility.yul\":6417:6426   */\n      dup2\n        /* \"#utility.yul\":6411:6415   */\n      dup2\n        /* \"#utility.yul\":6407:6427   */\n      sub\n        /* \"#utility.yul\":6402:6404   */\n      0x40\n        /* \"#utility.yul\":6391:6400   */\n      dup4\n        /* \"#utility.yul\":6387:6405   */\n      add\n        /* \"#utility.yul\":6380:6428   */\n      mstore\n        /* \"#utility.yul\":6445:6523   */\n      tag_152\n        /* \"#utility.yul\":6518:6522   */\n      dup2\n        /* \"#utility.yul\":6509:6515   */\n      dup5\n        /* \"#utility.yul\":6445:6523   */\n      tag_62\n      jump\t// in\n    tag_152:\n        /* \"#utility.yul\":6437:6523   */\n      swap1\n      pop\n        /* \"#utility.yul\":5906:6530   */\n      swap5\n      swap4\n      pop\n      pop\n      pop\n      pop\n      jump\t// out\n        /* \"#utility.yul\":6536:6716   */\n    tag_63:\n        /* \"#utility.yul\":6584:6661   */\n      0x4e487b7100000000000000000000000000000000000000000000000000000000\n        /* \"#utility.yul\":6581:6582   */\n      0x00\n        /* \"#utility.yul\":6574:6662   */\n      mstore\n        /* \"#utility.yul\":6681:6685   */\n      0x22\n        /* \"#utility.yul\":6678:6679   */\n      0x04\n        /* \"#utility.yul\":6671:6686   */\n      mstore\n        /* \"#utility.yul\":6705:6709   */\n      0x24\n        /* \"#utility.yul\":6702:6703   */\n      0x00\n        /* \"#utility.yul\":6695:6710   */\n      revert\n        /* \"#utility.yul\":6722:7042   */\n    tag_32:\n        /* \"#utility.yul\":6766:6772   */\n      0x00\n        /* \"#utility.yul\":6803:6804   */\n      0x02\n        /* \"#utility.yul\":6797:6801   */\n      dup3\n        /* \"#utility.yul\":6793:6805   */\n      div\n        /* \"#utility.yul\":6783:6805   */\n      swap1\n      pop\n        /* \"#utility.yul\":6850:6851   */\n      0x01\n        /* \"#utility.yul\":6844:6848   */\n      dup3\n        /* \"#utility.yul\":6840:6852   */\n      and\n        /* \"#utility.yul\":6871:6889   */\n      dup1\n        /* \"#utility.yul\":6861:6942   */\n      tag_155\n      jumpi\n        /* \"#utility.yul\":6927:6931   */\n      0x7f\n        /* \"#utility.yul\":6919:6925   */\n      dup3\n        /* \"#utility.yul\":6915:6932   */\n      and\n        /* \"#utility.yul\":6905:6932   */\n      swap2\n      pop\n        /* \"#utility.yul\":6861:6942   */\n    tag_155:\n        /* \"#utility.yul\":6989:6991   */\n      0x20\n        /* \"#utility.yul\":6981:6987   */\n      dup3\n        /* \"#utility.yul\":6978:6992   */\n      lt\n        /* \"#utility.yul\":6958:6976   */\n      dup2\n        /* \"#utility.yul\":6955:6993   */\n      sub\n        /* \"#utility.yul\":6952:7036   */\n      tag_156\n      jumpi\n        /* \"#utility.yul\":7008:7026   */\n      tag_157\n      tag_63\n      jump\t// in\n    tag_157:\n        /* \"#utility.yul\":6952:7036   */\n    tag_156:\n        /* \"#utility.yul\":6773:7042   */\n      pop\n        /* \"#utility.yul\":6722:7042   */\n      swap2\n      swap1\n      pop\n      jump\t// out\n        /* \"#utility.yul\":7048:7189   */\n    tag_64:\n        /* \"#utility.yul\":7097:7101   */\n      0x00\n        /* \"#utility.yul\":7120:7123   */\n      dup2\n        /* \"#utility.yul\":7112:7123   */\n      swap1\n      pop\n        /* \"#utility.yul\":7143:7146   */\n      dup2\n        /* \"#utility.yul\":7140:7141   */\n      0x00\n        /* \"#utility.yul\":7133:7147   */\n      mstore\n        /* \"#utility.yul\":7177:7181   */\n      0x20\n        /* \"#utility.yul\":7174:7175   */\n      0x00\n        /* \"#utility.yul\":7164:7182   */\n      keccak256\n        /* \"#utility.yul\":7156:7182   */\n      swap1\n      pop\n        /* \"#utility.yul\":7048:7189   */\n      swap2\n      swap1\n      pop\n      jump\t// out\n        /* \"#utility.yul\":7195:7288   */\n    tag_65:\n        /* \"#utility.yul\":7232:7238   */\n      0x00\n        /* \"#utility.yul\":7279:7281   */\n      0x20\n        /* \"#utility.yul\":7274:7276   */\n      0x1f\n        /* \"#utility.yul\":7267:7272   */\n      dup4\n        /* \"#utility.yul\":7263:7277   */\n      add\n        /* \"#utility.yul\":7259:7282   */\n      div\n        /* \"#utility.yul\":7249:7282   */\n      swap1\n      pop\n        /* \"#utility.yul\":7195:7288   */\n      swap2\n      swap1\n      pop\n      jump\t// out\n        /* \"#utility.yul\":7294:7401   */\n    tag_66:\n        /* \"#utility.yul\":7338:7346   */\n      0x00\n        /* \"#utility.yul\":7388:7393   */\n      dup3\n        /* \"#utility.yul\":7382:7386   */\n      dup3\n        /* \"#utility.yul\":7378:7394   */\n      shl\n        /* \"#utility.yul\":7357:7394   */\n      swap1\n      pop\n        /* \"#utility.yul\":7294:7401   */\n      swap3\n      swap2\n      pop\n      pop\n      jump\t// out\n        /* \"#utility.yul\":7407:7800   */\n    tag_67:\n        /* \"#utility.yul\":7476:7482   */\n      0x00\n        /* \"#utility.yul\":7526:7527   */\n      0x08\n        /* \"#utility.yul\":7514:7524   */\n      dup4\n        /* \"#utility.yul\":7510:7528   */\n      mul\n        /* \"#utility.yul\":7549:7646   */\n      tag_162\n        /* \"#utility.yul\":7579:7645   */\n      0xffffffffffffffffffffffffffffffffffffffffffffffffffffffffffffffff\n        /* \"#utility.yul\":7568:7577   */\n      dup3\n        /* \"#utility.yul\":7549:7646   */\n      tag_66\n      jump\t// in\n    tag_162:\n        /* \"#utility.yul\":7667:7706   */\n      tag_163\n        /* \"#utility.yul\":7697:7705   */\n      dup7\n        /* \"#utility.yul\":7686:7695   */\n      dup4\n        /* \"#utility.yul\":7667:7706   */\n      tag_66\n      jump\t// in\n    tag_163:\n        /* \"#utility.yul\":7655:7706   */\n      swap6\n      pop\n        /* \"#utility.yul\":7739:7743   */\n      dup1\n        /* \"#utility.yul\":7735:7744   */\n      not\n        /* \"#utility.yul\":7728:7733   */\n      dup5\n        /* \"#utility.yul\":7724:7745   */\n      and\n        /* \"#utility.yul\":7715:7745   */\n      swap4\n      pop\n        /* \"#utility.yul\":7788:7792   */\n      dup1\n        /* \"#utility.yul\":7778:7786   */\n      dup7\n        /* \"#utility.yul\":7774:7793   */\n      and\n        /* \"#utility.yul\":7767:7772   */\n      dup5\n        /* \"#utility.yul\":7764:7794   */\n      or\n        /* \"#utility.yul\":7754:7794   */\n      swap3\n      pop\n        /* \"#utility.yul\":7483:7800   */\n      pop\n      pop\n        /* \"#utility.yul\":7407:7800   */\n      swap4\n      swap3\n      pop\n      pop\n      pop\n      jump\t// out\n        /* \"#utility.yul\":7806:7866   */\n    tag_68:\n        /* \"#utility.yul\":7834:7837   */\n      0x00\n        /* \"#utility.yul\":7855:7860   */\n      dup2\n        /* \"#utility.yul\":7848:7860   */\n      swap1\n      pop\n        /* \"#utility.yul\":7806:7866   */\n      swap2\n      swap1\n      pop\n      jump\t// out\n        /* \"#utility.yul\":7872:8014   */\n    tag_69:\n        /* \"#utility.yul\":7922:7931   */\n      0x00\n        /* \"#utility.yul\":7955:8008   */\n      tag_166\n        /* \"#utility.yul\":7973:8007   */\n      tag_167\n        /* \"#utility.yul\":7982:8006   */\n      tag_168\n        /* \"#utility.yul\":8000:8005   */\n      dup5\n        /* \"#utility.yul\":7982:8006   */\n      tag_55\n      jump\t// in\n    tag_168:\n        /* \"#utility.yul\":7973:8007   */\n      tag_68\n      jump\t// in\n    tag_167:\n        /* \"#utility.yul\":7955:8008   */\n      tag_55\n      jump\t// in\n    tag_166:\n        /* \"#utility.yul\":7942:8008   */\n      swap1\n      pop\n        /* \"#utility.yul\":7872:8014   */\n      swap2\n      swap1\n      pop\n      jump\t// out\n        /* \"#utility.yul\":8020:8095   */\n    tag_70:\n        /* \"#utility.yul\":8063:8066   */\n      0x00\n        /* \"#utility.yul\":8084:8089   */\n      dup2\n        /* \"#utility.yul\":8077:8089   */\n      swap1\n      pop\n        /* \"#utility.yul\":8020:8095   */\n      swap2\n      swap1\n      pop\n      jump\t// out\n        /* \"#utility.yul\":8101:8370   */\n    tag_71:\n        /* \"#utility.yul\":8211:8250   */\n      tag_171\n        /* \"#utility.yul\":8242:8249   */\n      dup4\n        /* \"#utility.yul\":8211:8250   */\n      tag_69\n      jump\t// in\n    tag_171:\n        /* \"#utility.yul\":8272:8363   */\n      tag_172\n        /* \"#utility.yul\":8321:8362   */\n      tag_173\n        /* \"#utility.yul\":8345:8361   */\n      dup3\n        /* \"#utility.yul\":8321:8362   */\n      tag_70\n      jump\t// in\n    tag_173:\n        /* \"#utility.yul\":8313:8319   */\n      dup5\n        /* \"#utility.yul\":8306:8310   */\n      dup5\n        /* \"#utility.yul\":8300:8311   */\n      sload\n        /* \"#utility.yul\":8272:8363   */\n      tag_67\n      jump\t// in\n    tag_172:\n        /* \"#utility.yul\":8266:8270   */\n      dup3\n        /* \"#utility.yul\":8259:8364   */\n      sstore\n        /* \"#utility.yul\":8177:8370   */\n      pop\n        /* \"#utility.yul\":8101:8370   */\n      pop\n      pop\n      pop\n      jump\t// out\n        /* \"#utility.yul\":8376:8449   */\n    tag_72:\n        /* \"#utility.yul\":8421:8424   */\n      0x00\n        /* \"#utility.yul\":8376:8449   */\n      swap1\n      jump\t// out\n        /* \"#utility.yul\":8455:8644   */\n    tag_73:\n        /* \"#utility.yul\":8532:8564   */\n      tag_176\n      tag_72\n      jump\t// in\n    tag_176:\n        /* \"#utility.yul\":8573:8638   */\n      tag_177\n        /* \"#utility.yul\":8631:8637   */\n      dup2\n        /* \"#utility.yul\":8623:8629   */\n      dup5\n        /* \"#utility.yul\":8617:8621   */\n      dup5\n        /* \"#utility.yul\":8573:8638   */\n      tag_71\n      jump\t// in\n    tag_177:\n        /* \"#utility.yul\":8508:8644   */\n      pop\n        /* \"#utility.yul\":8455:8644   */\n      pop\n      pop\n      jump\t// out\n        /* \"#utility.yul\":8650:8836   */\n    tag_74:\n        /* \"#utility.yul\":8710:8830   */\n    tag_179:\n        /* \"#utility.yul\":8727:8730   */\n      dup2\n        /* \"#utility.yul\":8720:8725   */\n      dup2\n        /* \"#utility.yul\":8717:8731   */\n      lt\n        /* \"#utility.yul\":8710:8830   */\n      iszero\n      tag_181\n      jumpi\n        /* \"#utility.yul\":8781:8820   */\n      tag_182\n        /* \"#utility.yul\":8818:8819   */\n      0x00\n        /* \"#utility.yul\":8811:8816   */\n      dup3\n        /* \"#utility.yul\":8781:8820   */\n      tag_73\n      jump\t// in\n    tag_182:\n        /* \"#utility.yul\":8754:8755   */\n      0x01\n        /* \"#utility.yul\":8747:8752   */\n      dup2\n        /* \"#utility.yul\":8743:8756   */\n      add\n        /* \"#utility.yul\":8734:8756   */\n      swap1\n      pop\n        /* \"#utility.yul\":8710:8830   */\n      jump(tag_179)\n    tag_181:\n        /* \"#utility.yul\":8650:8836   */\n      pop\n      pop\n      jump\t// out\n        /* \"#utility.yul\":8842:9385   */\n    tag_75:\n        /* \"#utility.yul\":8943:8945   */\n      0x1f\n        /* \"#utility.yul\":8938:8941   */\n      dup3\n        /* \"#utility.yul\":8935:8946   */\n      gt\n        /* \"#utility.yul\":8932:9378   */\n      iszero\n      tag_184\n      jumpi\n        /* \"#utility.yul\":8977:9015   */\n      tag_185\n        /* \"#utility.yul\":9009:9014   */\n      dup2\n        /* \"#utility.yul\":8977:9015   */\n      tag_64\n      jump\t// in\n    tag_185:\n        /* \"#utility.yul\":9061:9090   */\n      tag_186\n        /* \"#utility.yul\":9079:9089   */\n      dup5\n        /* \"#utility.yul\":9061:9090   */\n      tag_65\n      jump\t// in\n    tag_186:\n        /* \"#utility.yul\":9051:9059   */\n      dup2\n        /* \"#utility.yul\":9047:9091   */\n      add\n        /* \"#utility.yul\":9244:9246   */\n      0x20\n        /* \"#utility.yul\":9232:9242   */\n      dup6\n        /* \"#utility.yul\":9229:9247   */\n      lt\n        /* \"#utility.yul\":9226:9275   */\n      iszero\n      tag_187\n      jumpi\n        /* \"#utility.yul\":9265:9273   */\n      dup2\n        /* \"#utility.yul\":9250:9273   */\n      swap1\n      pop\n        /* \"#utility.yul\":9226:9275   */\n    tag_187:\n        /* \"#utility.yul\":9288:9368   */\n      tag_188\n        /* \"#utility.yul\":9344:9366   */\n      tag_189\n        /* \"#utility.yul\":9362:9365   */\n      dup6\n        /* \"#utility.yul\":9344:9366   */\n      tag_65\n      jump\t// in\n    tag_189:\n        /* \"#utility.yul\":9334:9342   */\n      dup4\n        /* \"#utility.yul\":9330:9367   */\n      add\n        /* \"#utility.yul\":9317:9328   */\n      dup3\n        /* \"#utility.yul\":9288:9368   */\n      tag_74\n      jump\t// in\n    tag_188:\n        /* \"#utility.yul\":8947:9378   */\n      pop\n      pop\n        /* \"#utility.yul\":8932:9378   */\n    tag_184:\n        /* \"#utility.yul\":8842:9385   */\n      pop\n      pop\n      pop\n      jump\t// out\n        /* \"#utility.yul\":9391:9508   */\n    tag_76:\n        /* \"#utility.yul\":9445:9453   */\n      0x00\n        /* \"#utility.yul\":9495:9500   */\n      dup3\n        /* \"#utility.yul\":9489:9493   */\n      dup3\n        /* \"#utility.yul\":9485:9501   */\n      shr\n        /* \"#utility.yul\":9464:9501   */\n      swap1\n      pop\n        /* \"#utility.yul\":9391:9508   */\n      swap3\n      swap2\n      pop\n      pop\n      jump\t// out\n        /* \"#utility.yul\":9514:9683   */\n    tag_77:\n        /* \"#utility.yul\":9558:9564   */\n      0x00\n        /* \"#utility.yul\":9591:9642   */\n      tag_192\n        /* \"#utility.yul\":9639:9640   */\n      0x00\n        /* \"#utility.yul\":9635:9641   */\n      not\n        /* \"#utility.yul\":9627:9632   */\n      dup5\n        /* \"#utility.yul\":9624:9625   */\n      0x08\n        /* \"#utility.yul\":9620:9633   */\n      mul\n        /* \"#utility.yul\":9591:9642   */\n      tag_76\n      jump\t// in\n    tag_192:\n        /* \"#utility.yul\":9587:9643   */\n      not\n        /* \"#utility.yul\":9672:9676   */\n      dup1\n        /* \"#utility.yul\":9666:9670   */\n      dup4\n        /* \"#utility.yul\":9662:9677   */\n      and\n        /* \"#utility.yul\":9652:9677   */\n      swap2\n      pop\n        /* \"#utility.yul\":9565:9683   */\n      pop\n        /* \"#utility.yul\":9514:9683   */\n      swap3\n      swap2\n      pop\n      pop\n      jump\t// out\n        /* \"#utility.yul\":9688:9983   */\n    tag_78:\n        /* \"#utility.yul\":9764:9768   */\n      0x00\n        /* \"#utility.yul\":9910:9939   */\n      tag_194\n        /* \"#utility.yul\":9935:9938   */\n      dup4\n        /* \"#utility.yul\":9929:9933   */\n      dup4\n        /* \"#utility.yul\":9910:9939   */\n      tag_77\n      jump\t// in\n    tag_194:\n        /* \"#utility.yul\":9902:9939   */\n      swap2\n      pop\n        /* \"#utility.yul\":9972:9975   */\n      dup3\n        /* \"#utility.yul\":9969:9970   */\n      0x02\n        /* \"#utility.yul\":9965:9976   */\n      mul\n        /* \"#utility.yul\":9959:9963   */\n      dup3\n        /* \"#utility.yul\":9956:9977   */\n      or\n        /* \"#utility.yul\":9948:9977   */\n      swap1\n      pop\n        /* \"#utility.yul\":9688:9983   */\n      swap3\n      swap2\n      pop\n      pop\n      jump\t// out\n        /* \"#utility.yul\":9988:11383   */\n    tag_25:\n        /* \"#utility.yul\":10105:10142   */\n      tag_196\n        /* \"#utility.yul\":10138:10141   */\n      dup3\n        /* \"#utility.yul\":10105:10142   */\n      tag_59\n      jump\t// in\n    tag_196:\n        /* \"#utility.yul\":10207:10225   */\n      0xffffffffffffffff\n        /* \"#utility.yul\":10199:10205   */\n      dup2\n        /* \"#utility.yul\":10196:10226   */\n      gt\n        /* \"#utility.yul\":10193:10249   */\n      iszero\n      tag_197\n      jumpi\n        /* \"#utility.yul\":10229:10247   */\n      tag_198\n      tag_48\n      jump\t// in\n    tag_198:\n        /* \"#utility.yul\":10193:10249   */\n    tag_197:\n        /* \"#utility.yul\":10273:10311   */\n      tag_199\n        /* \"#utility.yul\":10305:10309   */\n      dup3\n        /* \"#utility.yul\":10299:10310   */\n      sload\n        /* \"#utility.yul\":10273:10311   */\n      tag_32\n      jump\t// in\n    tag_199:\n        /* \"#utility.yul\":10358:10425   */\n      tag_200\n        /* \"#utility.yul\":10418:10424   */\n      dup3\n        /* \"#utility.yul\":10410:10416   */\n      dup3\n        /* \"#utility.yul\":10404:10408   */\n      dup6\n        /* \"#utility.yul\":10358:10425   */\n      tag_75\n      jump\t// in\n    tag_200:\n        /* \"#utility.yul\":10452:10453   */\n      0x00\n        /* \"#utility.yul\":10476:10480   */\n      0x20\n        /* \"#utility.yul\":10463:10480   */\n      swap1\n      pop\n        /* \"#utility.yul\":10508:10510   */\n      0x1f\n        /* \"#utility.yul\":10500:10506   */\n      dup4\n        /* \"#utility.yul\":10497:10511   */\n      gt\n        /* \"#utility.yul\":10525:10526   */\n      0x01\n        /* \"#utility.yul\":10520:11138   */\n      dup2\n      eq\n      tag_202\n      jumpi\n        /* \"#utility.yul\":11182:11183   */\n      0x00\n        /* \"#utility.yul\":11199:11205   */\n      dup5\n        /* \"#utility.yul\":11196:11273   */\n      iszero\n      tag_203\n      jumpi\n        /* \"#utility.yul\":11248:11257   */\n      dup3\n        /* \"#utility.yul\":11243:11246   */\n      dup8\n        /* \"#utility.yul\":11239:11258   */\n      add\n        /* \"#utility.yul\":11233:11259   */\n      mload\n        /* \"#utility.yul\":11224:11259   */\n      swap1\n      pop\n        /* \"#utility.yul\":11196:11273   */\n    tag_203:\n        /* \"#utility.yul\":11299:11366   */\n      tag_204\n        /* \"#utility.yul\":11359:11365   */\n      dup6\n        /* \"#utility.yul\":11352:11357   */\n      dup3\n        /* \"#utility.yul\":11299:11366   */\n      tag_78\n      jump\t// in\n    tag_204:\n        /* \"#utility.yul\":11293:11297   */\n      dup7\n        /* \"#utility.yul\":11286:11367   */\n      sstore\n        /* \"#utility.yul\":11155:11377   */\n      pop\n        /* \"#utility.yul\":10490:11377   */\n      jump(tag_201)\n        /* \"#utility.yul\":10520:11138   */\n    tag_202:\n        /* \"#utility.yul\":10572:10576   */\n      0x1f\n        /* \"#utility.yul\":10568:10577   */\n      not\n        /* \"#utility.yul\":10560:10566   */\n      dup5\n        /* \"#utility.yul\":10556:10578   */\n      and\n        /* \"#utility.yul\":10606:10643   */\n      tag_205\n        /* \"#utility.yul\":10638:10642   */\n      dup7\n        /* \"#utility.yul\":10606:10643   */\n      tag_64\n      jump\t// in\n    tag_205:\n        /* \"#utility.yul\":10665:10666   */\n      0x00\n        /* \"#utility.yul\":10679:10887   */\n    tag_206:\n        /* \"#utility.yul\":10693:10700   */\n      dup3\n        /* \"#utility.yul\":10690:10691   */\n      dup2\n        /* \"#utility.yul\":10687:10701   */\n      lt\n        /* \"#utility.yul\":10679:10887   */\n      iszero\n      tag_208\n      jumpi\n        /* \"#utility.yul\":10772:10781   */\n      dup5\n        /* \"#utility.yul\":10767:10770   */\n      dup10\n        /* \"#utility.yul\":10763:10782   */\n      add\n        /* \"#utility.yul\":10757:10783   */\n      mload\n        /* \"#utility.yul\":10749:10755   */\n      dup3\n        /* \"#utility.yul\":10742:10784   */\n      sstore\n        /* \"#utility.yul\":10823:10824   */\n      0x01\n        /* \"#utility.yul\":10815:10821   */\n      dup3\n        /* \"#utility.yul\":10811:10825   */\n      add\n        /* \"#utility.yul\":10801:10825   */\n      swap2\n      pop\n        /* \"#utility.yul\":10870:10872   */\n      0x20\n        /* \"#utility.yul\":10859:10868   */\n      dup6\n        /* \"#utility.yul\":10855:10873   */\n      add\n        /* \"#utility.yul\":10842:10873   */\n      swap5\n      pop\n        /* \"#utility.yul\":10716:10720   */\n      0x20\n        /* \"#utility.yul\":10713:10714   */\n      dup2\n        /* \"#utility.yul\":10709:10721   */\n      add\n        /* \"#utility.yul\":10704:10721   */\n      swap1\n      pop\n        /* \"#utility.yul\":10679:10887   */\n      jump(tag_206)\n    tag_208:\n        /* \"#utility.yul\":10915:10921   */\n      dup7\n        /* \"#utility.yul\":10906:10913   */\n      dup4\n        /* \"#utility.yul\":10903:10922   */\n      lt\n        /* \"#utility.yul\":10900:11079   */\n      iszero\n      tag_209\n      jumpi\n        /* \"#utility.yul\":10973:10982   */\n      dup5\n        /* \"#utility.yul\":10968:10971   */\n      dup10\n        /* \"#utility.yul\":10964:10983   */\n      add\n        /* \"#utility.yul\":10958:10984   */\n      mload\n        /* \"#utility.yul\":11016:11064   */\n      tag_210\n        /* \"#utility.yul\":11058:11062   */\n      0x1f\n        /* \"#utility.yul\":11050:11056   */\n      dup10\n        /* \"#utility.yul\":11046:11063   */\n      and\n        /* \"#utility.yul\":11035:11044   */\n      dup3\n        /* \"#utility.yul\":11016:11064   */\n      tag_77\n      jump\t// in\n    tag_210:\n        /* \"#utility.yul\":11008:11014   */\n      dup4\n        /* \"#utility.yul\":11001:11065   */\n      sstore\n        /* \"#utility.yul\":10923:11079   */\n      pop\n        /* \"#utility.yul\":10900:11079   */\n    tag_209:\n        /* \"#utility.yul\":11125:11126   */\n      0x01\n        /* \"#utility.yul\":11121:11122   */\n      0x02\n        /* \"#utility.yul\":11113:11119   */\n      dup9\n        /* \"#utility.yul\":11109:11123   */\n      mul\n        /* \"#utility.yul\":11105:11127   */\n      add\n        /* \"#utility.yul\":11099:11103   */\n      dup9\n        /* \"#utility.yul\":11092:11128   */\n      sstore\n        /* \"#utility.yul\":10527:11138   */\n      pop\n      pop\n      pop\n        /* \"#utility.yul\":10490:11377   */\n    tag_201:\n      pop\n        /* \"#utility.yul\":10080:11383   */\n      pop\n      pop\n      pop\n        /* \"#utility.yul\":9988:11383   */\n      pop\n      pop\n      jump\t// out\n        /* \"#utility.yul\":11389:11537   */\n    tag_79:\n        /* \"#utility.yul\":11491:11502   */\n      0x00\n        /* \"#utility.yul\":11528:11531   */\n      dup2\n        /* \"#utility.yul\":11513:11531   */\n      swap1\n      pop\n        /* \"#utility.yul\":11389:11537   */\n      swap3\n      swap2\n      pop\n      pop\n      jump\t// out\n        /* \"#utility.yul\":11543:11933   */\n    tag_80:\n        /* \"#utility.yul\":11649:11652   */\n      0x00\n        /* \"#utility.yul\":11677:11716   */\n      tag_213\n        /* \"#utility.yul\":11710:11715   */\n      dup3\n        /* \"#utility.yul\":11677:11716   */\n      tag_59\n      jump\t// in\n    tag_213:\n        /* \"#utility.yul\":11732:11821   */\n      tag_214\n        /* \"#utility.yul\":11814:11820   */\n      dup2\n        /* \"#utility.yul\":11809:11812   */\n      dup6\n        /* \"#utility.yul\":11732:11821   */\n      tag_79\n      jump\t// in\n    tag_214:\n        /* \"#utility.yul\":11725:11821   */\n      swap4\n      pop\n        /* \"#utility.yul\":11830:11895   */\n      tag_215\n        /* \"#utility.yul\":11888:11894   */\n      dup2\n        /* \"#utility.yul\":11883:11886   */\n      dup6\n        /* \"#utility.yul\":11876:11880   */\n      0x20\n        /* \"#utility.yul\":11869:11874   */\n      dup7\n        /* \"#utility.yul\":11865:11881   */\n      add\n        /* \"#utility.yul\":11830:11895   */\n      tag_61\n      jump\t// in\n    tag_215:\n        /* \"#utility.yul\":11920:11926   */\n      dup1\n        /* \"#utility.yul\":11915:11918   */\n      dup5\n        /* \"#utility.yul\":11911:11927   */\n      add\n        /* \"#utility.yul\":11904:11927   */\n      swap2\n      pop\n        /* \"#utility.yul\":11653:11933   */\n      pop\n        /* \"#utility.yul\":11543:11933   */\n      swap3\n      swap2\n      pop\n      pop\n      jump\t// out\n        /* \"#utility.yul\":11939:12214   */\n    tag_28:\n        /* \"#utility.yul\":12071:12074   */\n      0x00\n        /* \"#utility.yul\":12093:12188   */\n      tag_217\n        /* \"#utility.yul\":12184:12187   */\n      dup3\n        /* \"#utility.yul\":12175:12181   */\n      dup5\n        /* \"#utility.yul\":12093:12188   */\n      tag_80\n      jump\t// in\n    tag_217:\n        /* \"#utility.yul\":12086:12188   */\n      swap2\n      pop\n        /* \"#utility.yul\":12205:12208   */\n      dup2\n        /* \"#utility.yul\":12198:12208   */\n      swap1\n      pop\n        /* \"#utility.yul\":11939:12214   */\n      swap3\n      swap2\n      pop\n      pop\n      jump\t// out\n\n    auxdata: 0xa2646970667358221220d2da0f0f0d2c5cda289d2a3f19598832428b603ef1946e569bbb843bb3b689c364736f6c634300081a0033\n}\n",
				"bytecode": {
					"linkReferences": {},
					"object": "6080604052348015600e575f80fd5b506109628061001c5f395ff3fe608060405234801561000f575f80fd5b506004361061003f575f3560e01c80634f15e54714610043578063abd08bc91461005f578063dd11eaf21461008f575b5f80fd5b61005d6004803603810190610058919061044e565b6100c1565b005b610079600480360381019061007491906104d6565b610161565b604051610086919061052c565b60405180910390f35b6100a960048036038101906100a49190610545565b61018e565b6040516100b8939291906105d0565b60405180910390f35b5f604051806060016040528084815260200185815260200183815250908060018154018082558091505060019003905f5260205f2090600302015f909190919091505f820151815f01556020820151816001019081610120919061080d565b506040820151816002019081610136919061080d565b5050508160018460405161014a9190610916565b908152602001604051809103902081905550505050565b6001818051602081018201805184825260208301602085012081835280955050505050505f915090505481565b5f818154811061019c575f80fd5b905f5260205f2090600302015f91509050805f0154908060010180546101c190610640565b80601f01602080910402602001604051908101604052809291908181526020018280546101ed90610640565b80156102385780601f1061020f57610100808354040283529160200191610238565b820191905f5260205f20905b81548152906001019060200180831161021b57829003601f168201915b50505050509080600201805461024d90610640565b80601f016020809104026020016040519081016040528092919081815260200182805461027990610640565b80156102c45780601f1061029b576101008083540402835291602001916102c4565b820191905f5260205f20905b8154815290600101906020018083116102a757829003601f168201915b5050505050905083565b5f604051905090565b5f80fd5b5f80fd5b5f80fd5b5f80fd5b5f601f19601f8301169050919050565b7f4e487b71000000000000000000000000000000000000000000000000000000005f52604160045260245ffd5b61032d826102e7565b810181811067ffffffffffffffff8211171561034c5761034b6102f7565b5b80604052505050565b5f61035e6102ce565b905061036a8282610324565b919050565b5f67ffffffffffffffff821115610389576103886102f7565b5b610392826102e7565b9050602081019050919050565b828183375f83830152505050565b5f6103bf6103ba8461036f565b610355565b9050828152602081018484840111156103db576103da6102e3565b5b6103e684828561039f565b509392505050565b5f82601f830112610402576104016102df565b5b81356104128482602086016103ad565b91505092915050565b5f819050919050565b61042d8161041b565b8114610437575f80fd5b50565b5f8135905061044881610424565b92915050565b5f805f60608486031215610465576104646102d7565b5b5f84013567ffffffffffffffff811115610482576104816102db565b5b61048e868287016103ee565b935050602061049f8682870161043a565b925050604084013567ffffffffffffffff8111156104c0576104bf6102db565b5b6104cc868287016103ee565b9150509250925092565b5f602082840312156104eb576104ea6102d7565b5b5f82013567ffffffffffffffff811115610508576105076102db565b5b610514848285016103ee565b91505092915050565b6105268161041b565b82525050565b5f60208201905061053f5f83018461051d565b92915050565b5f6020828403121561055a576105596102d7565b5b5f6105678482850161043a565b91505092915050565b5f81519050919050565b5f82825260208201905092915050565b8281835e5f83830152505050565b5f6105a282610570565b6105ac818561057a565b93506105bc81856020860161058a565b6105c5816102e7565b840191505092915050565b5f6060820190506105e35f83018661051d565b81810360208301526105f58185610598565b905081810360408301526106098184610598565b9050949350505050565b7f4e487b71000000000000000000000000000000000000000000000000000000005f52602260045260245ffd5b5f600282049050600182168061065757607f821691505b60208210810361066a57610669610613565b5b50919050565b5f819050815f5260205f209050919050565b5f6020601f8301049050919050565b5f82821b905092915050565b5f600883026106cc7fffffffffffffffffffffffffffffffffffffffffffffffffffffffffffffffff82610691565b6106d68683610691565b95508019841693508086168417925050509392505050565b5f819050919050565b5f61071161070c6107078461041b565b6106ee565b61041b565b9050919050565b5f819050919050565b61072a836106f7565b61073e61073682610718565b84845461069d565b825550505050565b5f90565b610752610746565b61075d818484610721565b505050565b5b81811015610780576107755f8261074a565b600181019050610763565b5050565b601f8211156107c55761079681610670565b61079f84610682565b810160208510156107ae578190505b6107c26107ba85610682565b830182610762565b50505b505050565b5f82821c905092915050565b5f6107e55f19846008026107ca565b1980831691505092915050565b5f6107fd83836107d6565b9150826002028217905092915050565b61081682610570565b67ffffffffffffffff81111561082f5761082e6102f7565b5b6108398254610640565b610844828285610784565b5f60209050601f831160018114610875575f8415610863578287015190505b61086d85826107f2565b8655506108d4565b601f19841661088386610670565b5f5b828110156108aa57848901518255600182019150602085019450602081019050610885565b868310156108c757848901516108c3601f8916826107d6565b8355505b6001600288020188555050505b505050505050565b5f81905092915050565b5f6108f082610570565b6108fa81856108dc565b935061090a81856020860161058a565b80840191505092915050565b5f61092182846108e6565b91508190509291505056fea2646970667358221220d2da0f0f0d2c5cda289d2a3f19598832428b603ef1946e569bbb843bb3b689c364736f6c634300081a0033",
					"opcodes": "PUSH1 0x80 PUSH1 0x40 MSTORE CALLVALUE DUP1 ISZERO PUSH1 0xE JUMPI PUSH0 DUP1 REVERT JUMPDEST POP PUSH2 0x962 DUP1 PUSH2 0x1C PUSH0 CODECOPY PUSH0 RETURN INVALID PUSH1 0x80 PUSH1 0x40 MSTORE CALLVALUE DUP1 ISZERO PUSH2 0xF JUMPI PUSH0 DUP1 REVERT JUMPDEST POP PUSH1 0x4 CALLDATASIZE LT PUSH2 0x3F JUMPI PUSH0 CALLDATALOAD PUSH1 0xE0 SHR DUP1 PUSH4 0x4F15E547 EQ PUSH2 0x43 JUMPI DUP1 PUSH4 0xABD08BC9 EQ PUSH2 0x5F JUMPI DUP1 PUSH4 0xDD11EAF2 EQ PUSH2 0x8F JUMPI JUMPDEST PUSH0 DUP1 REVERT JUMPDEST PUSH2 0x5D PUSH1 0x4 DUP1 CALLDATASIZE SUB DUP2 ADD SWAP1 PUSH2 0x58 SWAP2 SWAP1 PUSH2 0x44E JUMP JUMPDEST PUSH2 0xC1 JUMP JUMPDEST STOP JUMPDEST PUSH2 0x79 PUSH1 0x4 DUP1 CALLDATASIZE SUB DUP2 ADD SWAP1 PUSH2 0x74 SWAP2 SWAP1 PUSH2 0x4D6 JUMP JUMPDEST PUSH2 0x161 JUMP JUMPDEST PUSH1 0x40 MLOAD PUSH2 0x86 SWAP2 SWAP1 PUSH2 0x52C JUMP JUMPDEST PUSH1 0x40 MLOAD DUP1 SWAP2 SUB SWAP1 RETURN JUMPDEST PUSH2 0xA9 PUSH1 0x4 DUP1 CALLDATASIZE SUB DUP2 ADD SWAP1 PUSH2 0xA4 SWAP2 SWAP1 PUSH2 0x545 JUMP JUMPDEST PUSH2 0x18E JUMP JUMPDEST PUSH1 0x40 MLOAD PUSH2 0xB8 SWAP4 SWAP3 SWAP2 SWAP1 PUSH2 0x5D0 JUMP JUMPDEST PUSH1 0x40 MLOAD DUP1 SWAP2 SUB SWAP1 RETURN JUMPDEST PUSH0 PUSH1 0x40 MLOAD DUP1 PUSH1 0x60 ADD PUSH1 0x40 MSTORE DUP1 DUP5 DUP2 MSTORE PUSH1 0x20 ADD DUP6 DUP2 MSTORE PUSH1 0x20 ADD DUP4 DUP2 MSTORE POP SWAP1 DUP1 PUSH1 0x1 DUP2 SLOAD ADD DUP1 DUP3 SSTORE DUP1 SWAP2 POP POP PUSH1 0x1 SWAP1 SUB SWAP1 PUSH0 MSTORE PUSH1 0x20 PUSH0 KECCAK256 SWAP1 PUSH1 0x3 MUL ADD PUSH0 SWAP1 SWAP2 SWAP1 SWAP2 SWAP1 SWAP2 POP PUSH0 DUP3 ADD MLOAD DUP2 PUSH0 ADD SSTORE PUSH1 0x20 DUP3 ADD MLOAD DUP2 PUSH1 0x1 ADD SWAP1 DUP2 PUSH2 0x120 SWAP2 SWAP1 PUSH2 0x80D JUMP JUMPDEST POP PUSH1 0x40 DUP3 ADD MLOAD DUP2 PUSH1 0x2 ADD SWAP1 DUP2 PUSH2 0x136 SWAP2 SWAP1 PUSH2 0x80D JUMP JUMPDEST POP POP POP DUP2 PUSH1 0x1 DUP5 PUSH1 0x40 MLOAD PUSH2 0x14A SWAP2 SWAP1 PUSH2 0x916 JUMP JUMPDEST SWAP1 DUP2 MSTORE PUSH1 0x20 ADD PUSH1 0x40 MLOAD DUP1 SWAP2 SUB SWAP1 KECCAK256 DUP2 SWAP1 SSTORE POP POP POP POP JUMP JUMPDEST PUSH1 0x1 DUP2 DUP1 MLOAD PUSH1 0x20 DUP2 ADD DUP3 ADD DUP1 MLOAD DUP5 DUP3 MSTORE PUSH1 0x20 DUP4 ADD PUSH1 0x20 DUP6 ADD KECCAK256 DUP2 DUP4 MSTORE DUP1 SWAP6 POP POP POP POP POP POP PUSH0 SWAP2 POP SWAP1 POP SLOAD DUP2 JUMP JUMPDEST PUSH0 DUP2 DUP2 SLOAD DUP2 LT PUSH2 0x19C JUMPI PUSH0 DUP1 REVERT JUMPDEST SWAP1 PUSH0 MSTORE PUSH1 0x20 PUSH0 KECCAK256 SWAP1 PUSH1 0x3 MUL ADD PUSH0 SWAP2 POP SWAP1 POP DUP1 PUSH0 ADD SLOAD SWAP1 DUP1 PUSH1 0x1 ADD DUP1 SLOAD PUSH2 0x1C1 SWAP1 PUSH2 0x640 JUMP JUMPDEST DUP1 PUSH1 0x1F ADD PUSH1 0x20 DUP1 SWAP2 DIV MUL PUSH1 0x20 ADD PUSH1 0x40 MLOAD SWAP1 DUP2 ADD PUSH1 0x40 MSTORE DUP1 SWAP3 SWAP2 SWAP1 DUP2 DUP2 MSTORE PUSH1 0x20 ADD DUP3 DUP1 SLOAD PUSH2 0x1ED SWAP1 PUSH2 0x640 JUMP JUMPDEST DUP1 ISZERO PUSH2 0x238 JUMPI DUP1 PUSH1 0x1F LT PUSH2 0x20F JUMPI PUSH2 0x100 DUP1 DUP4 SLOAD DIV MUL DUP4 MSTORE SWAP2 PUSH1 0x20 ADD SWAP2 PUSH2 0x238 JUMP JUMPDEST DUP3 ADD SWAP2 SWAP1 PUSH0 MSTORE PUSH1 0x20 PUSH0 KECCAK256 SWAP1 JUMPDEST DUP2 SLOAD DUP2 MSTORE SWAP1 PUSH1 0x1 ADD SWAP1 PUSH1 0x20 ADD DUP1 DUP4 GT PUSH2 0x21B JUMPI DUP3 SWAP1 SUB PUSH1 0x1F AND DUP3 ADD SWAP2 JUMPDEST POP POP POP POP POP SWAP1 DUP1 PUSH1 0x2 ADD DUP1 SLOAD PUSH2 0x24D SWAP1 PUSH2 0x640 JUMP JUMPDEST DUP1 PUSH1 0x1F ADD PUSH1 0x20 DUP1 SWAP2 DIV MUL PUSH1 0x20 ADD PUSH1 0x40 MLOAD SWAP1 DUP2 ADD PUSH1 0x40 MSTORE DUP1 SWAP3 SWAP2 SWAP1 DUP2 DUP2 MSTORE PUSH1 0x20 ADD DUP3 DUP1 SLOAD PUSH2 0x279 SWAP1 PUSH2 0x640 JUMP JUMPDEST DUP1 ISZERO PUSH2 0x2C4 JUMPI DUP1 PUSH1 0x1F LT PUSH2 0x29B JUMPI PUSH2 0x100 DUP1 DUP4 SLOAD DIV MUL DUP4 MSTORE SWAP2 PUSH1 0x20 ADD SWAP2 PUSH2 0x2C4 JUMP JUMPDEST DUP3 ADD SWAP2 SWAP1 PUSH0 MSTORE PUSH1 0x20 PUSH0 KECCAK256 SWAP1 JUMPDEST DUP2 SLOAD DUP2 MSTORE SWAP1 PUSH1 0x1 ADD SWAP1 PUSH1 0x20 ADD DUP1 DUP4 GT PUSH2 0x2A7 JUMPI DUP3 SWAP1 SUB PUSH1 0x1F AND DUP3 ADD SWAP2 JUMPDEST POP POP POP POP POP SWAP1 POP DUP4 JUMP JUMPDEST PUSH0 PUSH1 0x40 MLOAD SWAP1 POP SWAP1 JUMP JUMPDEST PUSH0 DUP1 REVERT JUMPDEST PUSH0 DUP1 REVERT JUMPDEST PUSH0 DUP1 REVERT JUMPDEST PUSH0 DUP1 REVERT JUMPDEST PUSH0 PUSH1 0x1F NOT PUSH1 0x1F DUP4 ADD AND SWAP1 POP SWAP2 SWAP1 POP JUMP JUMPDEST PUSH32 0x4E487B7100000000000000000000000000000000000000000000000000000000 PUSH0 MSTORE PUSH1 0x41 PUSH1 0x4 MSTORE PUSH1 0x24 PUSH0 REVERT JUMPDEST PUSH2 0x32D DUP3 PUSH2 0x2E7 JUMP JUMPDEST DUP2 ADD DUP2 DUP2 LT PUSH8 0xFFFFFFFFFFFFFFFF DUP3 GT OR ISZERO PUSH2 0x34C JUMPI PUSH2 0x34B PUSH2 0x2F7 JUMP JUMPDEST JUMPDEST DUP1 PUSH1 0x40 MSTORE POP POP POP JUMP JUMPDEST PUSH0 PUSH2 0x35E PUSH2 0x2CE JUMP JUMPDEST SWAP1 POP PUSH2 0x36A DUP3 DUP3 PUSH2 0x324 JUMP JUMPDEST SWAP2 SWAP1 POP JUMP JUMPDEST PUSH0 PUSH8 0xFFFFFFFFFFFFFFFF DUP3 GT ISZERO PUSH2 0x389 JUMPI PUSH2 0x388 PUSH2 0x2F7 JUMP JUMPDEST JUMPDEST PUSH2 0x392 DUP3 PUSH2 0x2E7 JUMP JUMPDEST SWAP1 POP PUSH1 0x20 DUP2 ADD SWAP1 POP SWAP2 SWAP1 POP JUMP JUMPDEST DUP3 DUP2 DUP4 CALLDATACOPY PUSH0 DUP4 DUP4 ADD MSTORE POP POP POP JUMP JUMPDEST PUSH0 PUSH2 0x3BF PUSH2 0x3BA DUP5 PUSH2 0x36F JUMP JUMPDEST PUSH2 0x355 JUMP JUMPDEST SWAP1 POP DUP3 DUP2 MSTORE PUSH1 0x20 DUP2 ADD DUP5 DUP5 DUP5 ADD GT ISZERO PUSH2 0x3DB JUMPI PUSH2 0x3DA PUSH2 0x2E3 JUMP JUMPDEST JUMPDEST PUSH2 0x3E6 DUP5 DUP3 DUP6 PUSH2 0x39F JUMP JUMPDEST POP SWAP4 SWAP3 POP POP POP JUMP JUMPDEST PUSH0 DUP3 PUSH1 0x1F DUP4 ADD SLT PUSH2 0x402 JUMPI PUSH2 0x401 PUSH2 0x2DF JUMP JUMPDEST JUMPDEST DUP2 CALLDATALOAD PUSH2 0x412 DUP5 DUP3 PUSH1 0x20 DUP7 ADD PUSH2 0x3AD JUMP JUMPDEST SWAP2 POP POP SWAP3 SWAP2 POP POP JUMP JUMPDEST PUSH0 DUP2 SWAP1 POP SWAP2 SWAP1 POP JUMP JUMPDEST PUSH2 0x42D DUP2 PUSH2 0x41B JUMP JUMPDEST DUP2 EQ PUSH2 0x437 JUMPI PUSH0 DUP1 REVERT JUMPDEST POP JUMP JUMPDEST PUSH0 DUP2 CALLDATALOAD SWAP1 POP PUSH2 0x448 DUP2 PUSH2 0x424 JUMP JUMPDEST SWAP3 SWAP2 POP POP JUMP JUMPDEST PUSH0 DUP1 PUSH0 PUSH1 0x60 DUP5 DUP7 SUB SLT ISZERO PUSH2 0x465 JUMPI PUSH2 0x464 PUSH2 0x2D7 JUMP JUMPDEST JUMPDEST PUSH0 DUP5 ADD CALLDATALOAD PUSH8 0xFFFFFFFFFFFFFFFF DUP2 GT ISZERO PUSH2 0x482 JUMPI PUSH2 0x481 PUSH2 0x2DB JUMP JUMPDEST JUMPDEST PUSH2 0x48E DUP7 DUP3 DUP8 ADD PUSH2 0x3EE JUMP JUMPDEST SWAP4 POP POP PUSH1 0x20 PUSH2 0x49F DUP7 DUP3 DUP8 ADD PUSH2 0x43A JUMP JUMPDEST SWAP3 POP POP PUSH1 0x40 DUP5 ADD CALLDATALOAD PUSH8 0xFFFFFFFFFFFFFFFF DUP2 GT ISZERO PUSH2 0x4C0 JUMPI PUSH2 0x4BF PUSH2 0x2DB JUMP JUMPDEST JUMPDEST PUSH2 0x4CC DUP7 DUP3 DUP8 ADD PUSH2 0x3EE JUMP JUMPDEST SWAP2 POP POP SWAP3 POP SWAP3 POP SWAP3 JUMP JUMPDEST PUSH0 PUSH1 0x20 DUP3 DUP5 SUB SLT ISZERO PUSH2 0x4EB JUMPI PUSH2 0x4EA PUSH2 0x2D7 JUMP JUMPDEST JUMPDEST PUSH0 DUP3 ADD CALLDATALOAD PUSH8 0xFFFFFFFFFFFFFFFF DUP2 GT ISZERO PUSH2 0x508 JUMPI PUSH2 0x507 PUSH2 0x2DB JUMP JUMPDEST JUMPDEST PUSH2 0x514 DUP5 DUP3 DUP6 ADD PUSH2 0x3EE JUMP JUMPDEST SWAP2 POP POP SWAP3 SWAP2 POP POP JUMP JUMPDEST PUSH2 0x526 DUP2 PUSH2 0x41B JUMP JUMPDEST DUP3 MSTORE POP POP JUMP JUMPDEST PUSH0 PUSH1 0x20 DUP3 ADD SWAP1 POP PUSH2 0x53F PUSH0 DUP4 ADD DUP5 PUSH2 0x51D JUMP JUMPDEST SWAP3 SWAP2 POP POP JUMP JUMPDEST PUSH0 PUSH1 0x20 DUP3 DUP5 SUB SLT ISZERO PUSH2 0x55A JUMPI PUSH2 0x559 PUSH2 0x2D7 JUMP JUMPDEST JUMPDEST PUSH0 PUSH2 0x567 DUP5 DUP3 DUP6 ADD PUSH2 0x43A JUMP JUMPDEST SWAP2 POP POP SWAP3 SWAP2 POP POP JUMP JUMPDEST PUSH0 DUP2 MLOAD SWAP1 POP SWAP2 SWAP1 POP JUMP JUMPDEST PUSH0 DUP3 DUP3 MSTORE PUSH1 0x20 DUP3 ADD SWAP1 POP SWAP3 SWAP2 POP POP JUMP JUMPDEST DUP3 DUP2 DUP4 MCOPY PUSH0 DUP4 DUP4 ADD MSTORE POP POP POP JUMP JUMPDEST PUSH0 PUSH2 0x5A2 DUP3 PUSH2 0x570 JUMP JUMPDEST PUSH2 0x5AC DUP2 DUP6 PUSH2 0x57A JUMP JUMPDEST SWAP4 POP PUSH2 0x5BC DUP2 DUP6 PUSH1 0x20 DUP7 ADD PUSH2 0x58A JUMP JUMPDEST PUSH2 0x5C5 DUP2 PUSH2 0x2E7 JUMP JUMPDEST DUP5 ADD SWAP2 POP POP SWAP3 SWAP2 POP POP JUMP JUMPDEST PUSH0 PUSH1 0x60 DUP3 ADD SWAP1 POP PUSH2 0x5E3 PUSH0 DUP4 ADD DUP7 PUSH2 0x51D JUMP JUMPDEST DUP2 DUP2 SUB PUSH1 0x20 DUP4 ADD MSTORE PUSH2 0x5F5 DUP2 DUP6 PUSH2 0x598 JUMP JUMPDEST SWAP1 POP DUP2 DUP2 SUB PUSH1 0x40 DUP4 ADD MSTORE PUSH2 0x609 DUP2 DUP5 PUSH2 0x598 JUMP JUMPDEST SWAP1 POP SWAP5 SWAP4 POP POP POP POP JUMP JUMPDEST PUSH32 0x4E487B7100000000000000000000000000000000000000000000000000000000 PUSH0 MSTORE PUSH1 0x22 PUSH1 0x4 MSTORE PUSH1 0x24 PUSH0 REVERT JUMPDEST PUSH0 PUSH1 0x2 DUP3 DIV SWAP1 POP PUSH1 0x1 DUP3 AND DUP1 PUSH2 0x657 JUMPI PUSH1 0x7F DUP3 AND SWAP2 POP JUMPDEST PUSH1 0x20 DUP3 LT DUP2 SUB PUSH2 0x66A JUMPI PUSH2 0x669 PUSH2 0x613 JUMP JUMPDEST JUMPDEST POP SWAP2 SWAP1 POP JUMP JUMPDEST PUSH0 DUP2 SWAP1 POP DUP2 PUSH0 MSTORE PUSH1 0x20 PUSH0 KECCAK256 SWAP1 POP SWAP2 SWAP1 POP JUMP JUMPDEST PUSH0 PUSH1 0x20 PUSH1 0x1F DUP4 ADD DIV SWAP1 POP SWAP2 SWAP1 POP JUMP JUMPDEST PUSH0 DUP3 DUP3 SHL SWAP1 POP SWAP3 SWAP2 POP POP JUMP JUMPDEST PUSH0 PUSH1 0x8 DUP4 MUL PUSH2 0x6CC PUSH32 0xFFFFFFFFFFFFFFFFFFFFFFFFFFFFFFFFFFFFFFFFFFFFFFFFFFFFFFFFFFFFFFFF DUP3 PUSH2 0x691 JUMP JUMPDEST PUSH2 0x6D6 DUP7 DUP4 PUSH2 0x691 JUMP JUMPDEST SWAP6 POP DUP1 NOT DUP5 AND SWAP4 POP DUP1 DUP7 AND DUP5 OR SWAP3 POP POP POP SWAP4 SWAP3 POP POP POP JUMP JUMPDEST PUSH0 DUP2 SWAP1 POP SWAP2 SWAP1 POP JUMP JUMPDEST PUSH0 PUSH2 0x711 PUSH2 0x70C PUSH2 0x707 DUP5 PUSH2 0x41B JUMP JUMPDEST PUSH2 0x6EE JUMP JUMPDEST PUSH2 0x41B JUMP JUMPDEST SWAP1 POP SWAP2 SWAP1 POP JUMP JUMPDEST PUSH0 DUP2 SWAP1 POP SWAP2 SWAP1 POP JUMP JUMPDEST PUSH2 0x72A DUP4 PUSH2 0x6F7 JUMP JUMPDEST PUSH2 0x73E PUSH2 0x736 DUP3 PUSH2 0x718 JUMP JUMPDEST DUP5 DUP5 SLOAD PUSH2 0x69D JUMP JUMPDEST DUP3 SSTORE POP POP POP POP JUMP JUMPDEST PUSH0 SWAP1 JUMP JUMPDEST PUSH2 0x752 PUSH2 0x746 JUMP JUMPDEST PUSH2 0x75D DUP2 DUP5 DUP5 PUSH2 0x721 JUMP JUMPDEST POP POP POP JUMP JUMPDEST JUMPDEST DUP2 DUP2 LT ISZERO PUSH2 0x780 JUMPI PUSH2 0x775 PUSH0 DUP3 PUSH2 0x74A JUMP JUMPDEST PUSH1 0x1 DUP2 ADD SWAP1 POP PUSH2 0x763 JUMP JUMPDEST POP POP JUMP JUMPDEST PUSH1 0x1F DUP3 GT ISZERO PUSH2 0x7C5 JUMPI PUSH2 0x796 DUP2 PUSH2 0x670 JUMP JUMPDEST PUSH2 0x79F DUP5 PUSH2 0x682 JUMP JUMPDEST DUP2 ADD PUSH1 0x20 DUP6 LT ISZERO PUSH2 0x7AE JUMPI DUP2 SWAP1 POP JUMPDEST PUSH2 0x7C2 PUSH2 0x7BA DUP6 PUSH2 0x682 JUMP JUMPDEST DUP4 ADD DUP3 PUSH2 0x762 JUMP JUMPDEST POP POP JUMPDEST POP POP POP JUMP JUMPDEST PUSH0 DUP3 DUP3 SHR SWAP1 POP SWAP3 SWAP2 POP POP JUMP JUMPDEST PUSH0 PUSH2 0x7E5 PUSH0 NOT DUP5 PUSH1 0x8 MUL PUSH2 0x7CA JUMP JUMPDEST NOT DUP1 DUP4 AND SWAP2 POP POP SWAP3 SWAP2 POP POP JUMP JUMPDEST PUSH0 PUSH2 0x7FD DUP4 DUP4 PUSH2 0x7D6 JUMP JUMPDEST SWAP2 POP DUP3 PUSH1 0x2 MUL DUP3 OR SWAP1 POP SWAP3 SWAP2 POP POP JUMP JUMPDEST PUSH2 0x816 DUP3 PUSH2 0x570 JUMP JUMPDEST PUSH8 0xFFFFFFFFFFFFFFFF DUP2 GT ISZERO PUSH2 0x82F JUMPI PUSH2 0x82E PUSH2 0x2F7 JUMP JUMPDEST JUMPDEST PUSH2 0x839 DUP3 SLOAD PUSH2 0x640 JUMP JUMPDEST PUSH2 0x844 DUP3 DUP3 DUP6 PUSH2 0x784 JUMP JUMPDEST PUSH0 PUSH1 0x20 SWAP1 POP PUSH1 0x1F DUP4 GT PUSH1 0x1 DUP2 EQ PUSH2 0x875 JUMPI PUSH0 DUP5 ISZERO PUSH2 0x863 JUMPI DUP3 DUP8 ADD MLOAD SWAP1 POP JUMPDEST PUSH2 0x86D DUP6 DUP3 PUSH2 0x7F2 JUMP JUMPDEST DUP7 SSTORE POP PUSH2 0x8D4 JUMP JUMPDEST PUSH1 0x1F NOT DUP5 AND PUSH2 0x883 DUP7 PUSH2 0x670 JUMP JUMPDEST PUSH0 JUMPDEST DUP3 DUP2 LT ISZERO PUSH2 0x8AA JUMPI DUP5 DUP10 ADD MLOAD DUP3 SSTORE PUSH1 0x1 DUP3 ADD SWAP2 POP PUSH1 0x20 DUP6 ADD SWAP5 POP PUSH1 0x20 DUP2 ADD SWAP1 POP PUSH2 0x885 JUMP JUMPDEST DUP7 DUP4 LT ISZERO PUSH2 0x8C7 JUMPI DUP5 DUP10 ADD MLOAD PUSH2 0x8C3 PUSH1 0x1F DUP10 AND DUP3 PUSH2 0x7D6 JUMP JUMPDEST DUP4 SSTORE POP JUMPDEST PUSH1 0x1 PUSH1 0x2 DUP9 MUL ADD DUP9 SSTORE POP POP POP JUMPDEST POP POP POP POP POP POP JUMP JUMPDEST PUSH0 DUP2 SWAP1 POP SWAP3 SWAP2 POP POP JUMP JUMPDEST PUSH0 PUSH2 0x8F0 DUP3 PUSH2 0x570 JUMP JUMPDEST PUSH2 0x8FA DUP2 DUP6 PUSH2 0x8DC JUMP JUMPDEST SWAP4 POP PUSH2 0x90A DUP2 DUP6 PUSH1 0x20 DUP7 ADD PUSH2 0x58A JUMP JUMPDEST DUP1 DUP5 ADD SWAP2 POP POP SWAP3 SWAP2 POP POP JUMP JUMPDEST PUSH0 PUSH2 0x921 DUP3 DUP5 PUSH2 0x8E6 JUMP JUMPDEST SWAP2 POP DUP2 SWAP1 POP SWAP3 SWAP2 POP POP JUMP INVALID LOG2 PUSH5 0x6970667358 0x22 SLT KECCAK256 0xD2 0xDA 0xF 0xF 0xD 0x2C TLOAD 0xDA 0x28 SWAP14 0x2A EXTCODEHASH NOT MSIZE DUP9 ORIGIN TIMESTAMP DUP12 PUSH1 0x3E CALL SWAP5 PUSH15 0x569BBB843BB3B689C364736F6C6343 STOP ADDMOD BYTE STOP CALLER "
				},
				"gasEstimates": {
					"creation": {
						"codeDepositCost": "480400",
						"executionCost": "516",
						"totalCost": "480916"
					},
					"external": {
						"List(uint256)": "infinite",
						"add(string,uint256,string)": "infinite",
						"nameNim(string)": "infinite"
					}
				},
				"methodIdentifiers": {
					"List(uint256)": "dd11eaf2",
					"add(string,uint256,string)": "4f15e547",
					"nameNim(string)": "abd08bc9"
				}
			},
			"storageLayout": {
				"storage": [
					{
						"astId": 12,
						"contract": "Chapter_1/tugas_1.sol:Mahasiswa",
						"label": "List",
						"offset": 0,
						"slot": "0",
						"type": "t_array(t_struct(Person)8_storage)dyn_storage"
					},
					{
						"astId": 16,
						"contract": "Chapter_1/tugas_1.sol:Mahasiswa",
						"label": "nameNim",
						"offset": 0,
						"slot": "1",
						"type": "t_mapping(t_string_memory_ptr,t_uint256)"
					}
				],
				"types": {
					"t_array(t_struct(Person)8_storage)dyn_storage": {
						"base": "t_struct(Person)8_storage",
						"encoding": "dynamic_array",
						"label": "struct Mahasiswa.Person[]",
						"numberOfBytes": "32"
					},
					"t_mapping(t_string_memory_ptr,t_uint256)": {
						"encoding": "mapping",
						"key": "t_string_memory_ptr",
						"label": "mapping(string => uint256)",
						"numberOfBytes": "32",
						"value": "t_uint256"
					},
					"t_string_memory_ptr": {
						"encoding": "bytes",
						"label": "string",
						"numberOfBytes": "32"
					},
					"t_string_storage": {
						"encoding": "bytes",
						"label": "string",
						"numberOfBytes": "32"
					},
					"t_struct(Person)8_storage": {
						"encoding": "inplace",
						"label": "struct Mahasiswa.Person",
						"members": [
							{
								"astId": 3,
								"contract": "Chapter_1/tugas_1.sol:Mahasiswa",
								"label": "nim",
								"offset": 0,
								"slot": "0",
								"type": "t_uint256"
							},
							{
								"astId": 5,
								"contract": "Chapter_1/tugas_1.sol:Mahasiswa",
								"label": "name",
								"offset": 0,
								"slot": "1",
								"type": "t_string_storage"
							},
							{
								"astId": 7,
								"contract": "Chapter_1/tugas_1.sol:Mahasiswa",
								"label": "jurusan",
								"offset": 0,
								"slot": "2",
								"type": "t_string_storage"
							}
						],
						"numberOfBytes": "96"
					},
					"t_uint256": {
						"encoding": "inplace",
						"label": "uint256",
						"numberOfBytes": "32"
					}
				}
			},
			"userdoc": {
				"kind": "user",
				"methods": {},
				"version": 1
			}
		}
	}
}